:1000000000000320D1010000E9210000A12100002F
:10001000A1210000A1210000A1210000A1210000D8
:10002000A1210000A1210000A1210000E921000080
:10003000E9210000A1210000591800005D1800000E
:10004000E9210000E9210000E9210000E921000088
:10005000E9210000E9210000E9210000E921000078
:10006000E9210000E9210000E9210000E921000068
:10007000E9210000E9210000E9210000E921000058
:10008000E9210000E9210000E9210000E921000048
:10009000E9210000E9210000E9210000E921000038
:1000A000E9210000E9210000E9210000E921000028
:1000B000E9210000E9210000E9210000E921000018
:1000C000E9210000E9210000E9210000E921000008
:1000D000E9210000E9210000E9210000E9210000F8
:1000E000E9210000E9210000E9210000E9210000E8
:1000F000E9210000E9210000E9210000E9210000D8
:10010000E9210000E9210000E9210000E9210000C7
:10011000E9210000FD2E0000E9210000E921000096
:10012000E9210000E9210000E9210000E9210000A7
:10013000E9210000E9210000E9210000E921000097
:10014000E9210000E9210000E9210000E921000087
:10015000E9210000E9210000E9210000E921000077
:10016000E9210000E9210000E9210000E921000067
:10017000E9210000E9210000E9210000E921000057
:10018000E9210000E9210000E9210000E921000047
:10019000E9210000E9210000E9210000E921000037
:1001A000E9210000E9210000E9210000E921000027
:1001B000E9210000E9210000E9210000E921000017
:1001C000E9210000E9210000E9210000E921000007
:1001D0005C4B4CF2205210B51A804DF628121A8052
:1001E00000BF00BF02F004F8574B4FF030621A60B6
:1001F000564A9A60564ADA60564B4FF470021A60BB
:10020000554B564A1A60564B1A78110703D51A787F
:1002100042F008021A70534B5349AA221A70534AEB
:10022000534B8B4204D252F8040F43F8040BF8E707
:10023000504B514900228B4202D243F8042BFAE77B
:100240004E494F4A002352F8230041F8230001335E
:10025000742BF8D14B4B4C4A802103F8011B93427D
:10026000FBD14A4B454A1A60494B8A221A70A3F5C2
:10027000805324225A70A0221A709A799207FCD5D2
:100280009A79D406FCD4434A937903F00C03082BE3
:10029000FAD1414B60221A7002331A78802AFCD1BD
:1002A0003C4B01221A715D225A719A799006FCD555
:1002B0009979384A4906FBD5384B394919600021EC
:1002C000596020231370937903F00C030C2BFAD19F
:1002D000344B354A1A60354A354C136813F4807331
:1002E00003D123604FF4A8531360324B324A1A6093
:1002F00000225A60072243F8042C304AC3F80C2D20
:1003000062B602F0BFFC2368DA0705D52C4802F07C
:10031000F3F92C4B2C4A1A602C4B1B785B0609D541
:10032000284C294B22689A4204D1254802F0E4F96E
:100330000023236001F062FF03F0D2FB01F054FEC2
:10034000FEE700BF0E20054030800440823F0400DD
:100350000100002B88ED00E0002008E0030000858C
:1003600002D0074000E007406C10FF1F9CA3000074
:100370003007FF1F6C10FF1F8C16FF1F0002FF1FAE
:100380000000000000E400E064E400E008ED00E0AC
:10039000005006400040064001E007404480044011
:1003A0000000060204800440C010070010D0034083
:1003B00014D0034014E000E01FBF02000000202022
:1003C0001CCBF9621CE00340A5C3945A00F007401F
:1003D000FFFFFFFFFFFFFFFFFFFFFFFFFFFFFFFF2D
:1003E000FFFFFFFFFFFFFFFFFFFFFFFFFFFFFFFF1D
:1003F000FFFFFFFFFFFFFFFFFFFFFFFFFFFFFFFF0D
:10040000FFFFFFFFFFFFFFFFFFFFFFFFDEF9FFFF23
:1004100010B5054C237833B9044B13B10448AFF33E
:1004200000800123237010BD6C10FF1F000000002E
:1004300098A30000084B10B51BB108490848AFF35A
:1004400000800848036803B910BD074B002BFBD0A0
:10045000BDE81040184700BF000000007010FF1FEB
:1004600098A300006C10FF1F0000000008B52720B3
:1004700002F0A2FB58B90D490B7843B90C4A136836
:10048000042B0ED00133136001230B7008BD27200D
:1004900002F092FB012800D008BD044B00221A7024
:1004A00008BD0123136001230B7008BDC814FF1F92
:1004B0003407FF1FF8B53B4CE37A06460D46002B88
:1004C00026D072B6E37AD8071A4606D53649E268CE
:1004D00008680240E2610A601A46990706D5334966
:1004E00023690868E27A034023620B60530706D54C
:1004F0002F4963690868E27A034063620B6017075B
:1005000005D52C4AA36911680B40A362136062B63B
:100510002368294AD968914206D0284F284829499A
:100520001F60DA60186119600121042002F03EFBAF
:100530000121072002F03AFB0021062002F036FBE1
:1005400023684FF00042DA625E63DA6A002AFCDA5E
:100550004FF00042996BDA625D63DA6A002AFCDAD6
:10056000012106209B6B02F021FBE37A0D491A461C
:10057000B3B1DD0703D5144AC96911601A4698075B
:1005800003D5124B216AE27A1960510703D5104B4B
:10059000616AE27A1960130702D50E4BA26A1A60EB
:1005A000F8BD00BF3807FF1F80E100E084E100E0F4
:1005B00088E100E08CE100E00110003801403F00DC
:1005C0000110007800003F8000E100E004E100E05D
:1005D00008E100E00CE100E0F8B50021272002F07E
:1005E000F9FA0121062002F0F5FA0121072002F0B4
:1005F000F1FA0121042002F0EDFA0021042002F0BA
:10060000D5FA082001F0C4FB202001F0F5FB022000
:1006100001F098FB0F48104D104F00F09FFC104860
:10062000104A046840F2EE2613783BB12B78DB07C2
:1006300004D5036839685B1A0E2B0AD80368117851
:100640001B1B19B1B3F5FA6FEED9F8BDB342EBD964
:10065000F8BDF8BDA414FF1F2016FF1F8416FF1F4E
:100660002815FF1F0C16FF1F70B52DED068BAD4D25
:10067000AD4CAE4E9FEDAEAA92B0FFF7F7FEAD497E
:1006800009A801F033F90A22296805A801F060F9E8
:1006900005A909A801F0DEF901460DA801F03AF913
:1006A0000DA9A54801F096F90DA801F0DFF805A8FD
:1006B00001F0DCF809A801F0D9F8232001F0DAFBF9
:1006C0009E49208009A801F011F90A22218805A875
:1006D00001F03EF905A909A801F0BCF901460DA8F1
:1006E00001F018F90DA9964801F074F90DA801F070
:1006F000BDF805A801F0BAF809A801F0B7F89148CB
:1007000000F068FC002840F083819FED8F8AF0EEB6
:10071000488AB0EE489AF0EE489A2B68013B032BCA
:100720002DD8DFE813F0230146004C01040087496F
:1007300005A801F0DBF8B0EE480A022101A801F09B
:100740001BF901A905A801F085F9814901F08AF991
:10075000014609A801F0DEF809A97E4801F03AF93E
:1007600009A801F083F801A801F080F805A801F0BC
:100770007DF82178C943C9B20320FFF79BFE764973
:100780006D4801F093F9002841D074496C4801F09C
:100790008DF900285DD072496E4801F087F9002874
:1007A00079D03378002B40F09280642002F018FA60
:1007B00063E76C4905A801F099F8B0EE490A0221F7
:1007C00001A801F0D9F801A905A801F043F9604991
:1007D00001F048F9014609A801F09CF809A95D4813
:1007E00001F0F8F809A801F041F801A801F03EF87D
:1007F00005A801F03BF82178C943C9B20120FFF7F1
:1008000059FE55494C4801F051F90028BDD15249D3
:1008100009A801F07FF80823022209A9524800F034
:1008200063FF09A801F022F8434909A801F072F812
:10083000082309A902224C4800F0F0FE09A801F0A3
:1008400015F8012345493E48337001F02FF900287F
:10085000A1D1424909A801F05DF808230C2209A999
:10086000414800F041FF09A801F000F8344909A807
:1008700001F050F8082309A90C223B4800F0CEFEF5
:1008800009A800F0F3FF012335493248337001F025
:100890000DF9002885D1324909A801F03BF8082359
:1008A000162209A9304800F01FFF09A800F0DEFF5A
:1008B000284909A801F02EF80823162209A92A4878
:1008C00000F0ACFE09A800F0D1FF012333702648E8
:1008D00000F034FF0022184909A801F019F909A90C
:1008E0001D4801F077F809A800F0C0FF0022144964
:1008F00009A801F00DF909A9184801F06BF809A839
:1009000000F0B4FF0022134909A801F001F909A978
:10091000134801F05FF809A800F0A8FF0023337026
:1009200043E700BF3407FF1FFC14FF1FB414FF1F71
:1009300000008036C86E00009414FF1FD46E0000C3
:10094000B814FF1FA414FF1F00000000006F000078
:10095000EC6E0000EC14FF1F0015FF1FDC14FF1FDE
:10096000CC14FF1FF06E00008810FF1F3C4905A843
:1009700000F0BCFFB0EE690A022101A800F0FCFF04
:1009800001A905A801F066F8364901F06BF80146A7
:1009900009A800F0BFFF09A9334801F01BF809A816
:1009A00000F064FF01A800F061FF05A800F05EFF01
:1009B0002178C943C9B20020FFF77CFDDFE62B494F
:1009C00005A800F093FFB0EE680A022101A800F02C
:1009D000D3FF01A905A801F03DF8224901F042F832
:1009E000014609A800F096FF09A91F4800F0F2FF90
:1009F00009A800F03BFF01A800F038FF05A800F0AF
:100A000035FF2178C943C9B20220FFF753FDB6E68E
:100A100017499FED188A0DA800F0E6FADDED0E7A71
:100A2000F8EEE79ADDED0F7AB8EEE79ADDED107A91
:100A3000F8EEE78ADDED117AF8EEE77A69EE8A9A48
:100A400029EE0A9A68EE8A8A67EE8A7A69EE889AAF
:100A500029EE089A68EE888A27EE888A5DE600BF4C
:100A6000E46E0000EC6E0000EC14FF1FF86E000056
:100A7000A414FF1F000010422DE9F04387B0314C51
:100A800004941B250B270C221E238DE88800039558
:100A900002922123022203212B482C4EDFF8C8901A
:100AA000DFF8C88000F044FA4FF0180C4FF01A0E2F
:100AB00019203B468DE80140CDF808C02A46214662
:100AC000234D244C2448254F00F006FD30460021DC
:100AD00000F00CFF2A462146304602F0DDFF484672
:100AE000002100F003FF2A462146484602F0D4FFC9
:100AF0001B4E4046002100F0F9FE2A4621464046A2
:100B000002F0CAFF3046002100F0F0FE2A462146DE
:100B1000304602F0C1FF134E3846002100F0E6FED9
:100B20002A462146384602F0B7FF3046002100F041
:100B3000DDFE2A462146304607B0BDE8F04302F00C
:100B4000ABBF00BF3807FF1FA414FF1F9414FF1F83
:100B50003007FF1F6D1800008810FF1FEC14FF1FE7
:100B6000DC14FF1FCC14FF1F0015FF1FB814FF1F5C
:100B700010B4047F4160022CC26003D05DF8044BC6
:100B800000F008BE83685DF8044B1847F0B4464B8C
:100B9000464A986B5C6B01791170454922790A705D
:100BA0001A6B00790870002A46D05968C9688A42D1
:100BB0003ED82168CC8B240402F1FF3065D4C0F309
:100BC0000E00C883C88B80B2C882996B0968C88B35
:100BD000000452D4C2F30E00C883C88B002480B234
:100BE00012F1FF32C88218BF01221C63596B2E48D4
:100BF00009680D6800F12C04A54236D00068C4686D
:100C000014F0804F0C680D6815BF248824780235D5
:100C1000013544F000440D604463996B254B09791C
:100C20001970214912B14A6B12791A70F0BC7047E1
:100C3000521A1A630122D9E7D86B196805681E4C4D
:100C40000A63CC62CC682D681C4E24F080440327D4
:100C5000B542CC6083F82D701FD1037F4260022B18
:100C6000C2601ED0F0BC00F095BD016890F82C0069
:100C7000CC6840F000404863CFE7CC8BC2F308005B
:100C800004F47E442043C883A7E7CC8BC0F308005C
:100C900004F47E442043C88394E72B461146F0BCFD
:100CA00018478368F0BC18473807FF1F1F800040B3
:100CB0001C8000401B80004000000FFF710B0000F3
:100CC00090E80C00F0B41C6859682568164F174E60
:100CD00029432160164D17491760D66015611160D0
:100CE000417A154A5C180C3194F82C4053F8215085
:100CF00002EBC40149680D60017A5C1803EB8101C5
:100D0000247ECD6902EBC40149680D60817A5818D0
:100D100003EB810390F84000596C02EBC002F0BC79
:100D200053681960704700BF01401F000110003870
:100D30000110007800001F80EC9F0000F0B4254BEC
:100D40004568AB4211D0437A2B4493F82C60B142F2
:100D500009D005F12B02002312F8014F8C421AD062
:100D60000133042BF8D1F0BC70470B292CD0072994
:100D700009D01C29E7D1184A137823F0030343F064
:100D800002031370DFE7144A137823F0030343F0E0
:100D900001031370D7E795E806000968114210D0E7
:100DA0000E4A02EBC60600277468E918276091F81E
:100DB0002C1002EBC10203F10C01546855F82120FC
:100DC00022604372F0BC7047034A137823F0030398
:100DD0001370B8E7086F00002615FF1FEC9F000096
:100DE000F0B4244B4568AB4210D0037A2B441E7EEE
:100DF000B14209D005F11702002312F8014F8C42CD
:100E00001AD00133042BF8D1F0BC70470C292AD03A
:100E1000082909D02729E8D1174A137823F00C03B1
:100E200043F008031370E0E7134A137823F00C0330
:100E300043F004031370D8E795E8060009681142EF
:100E40000ED00E4A02EBC606E91874680027276028
:100E5000097E02EBC10205EB83055268E969116066
:100E60000372F0BC7047044A137823F00C0313702C
:100E7000BBE700BF086F00002615FF1FEC9F0000B6
:100E8000284A43689A4270B415D0827A1A4492F87C
:100E9000402091420DD093F840408C423FD093F8CF
:100EA00041408C421DD093F842408C4208BF022141
:100EB00018D070BC70470D292BD00E2909D01B29E2
:100EC000E3D1194C227822F0300242F02002227045
:100ED000DBE7154C227822F0300242F0100222703B
:100EE000D3E701211D685C682D6825420FD00F4CA7
:100EF00004EBC202002655685A182E6092F8402072
:100F000004EBC20403EB810362685B6C13608172C3
:100F1000CFE7054C227822F030022270B5E700219D
:100F2000E0E700BF086F00002615FF1FEC9F0000E0
:100F3000F0B49DF910709DF914609DF9185001707E
:100F400042709DF91C10089A83700023C7700671C7
:100F50004571817182600373F0BC704710B504461F
:100F60000121007801F036FE2078012101F01EFEFB
:100F7000A179A068FFF784FF2179A068FFF7DEFE62
:100F80006179A068FFF72CFFA068FFF799FE0121A7
:100F9000E07801F01FFE9FED0E0AE07801F060FDA1
:100FA000E078802101F0BCFBA078012101F012FE65
:100FB0000021A07801F0FAFD4FF47A7001F010FEE4
:100FC000A078012101F0F2FD0123237310BD00BFC1
:100FD0000000FA4A08B5407801F0EEFD10F1FF304C
:100FE00018BF012008BD00BF70B58B68DA7A0D46C6
:100FF0000446002A25D072B6DA7AD60706D59C496F
:10100000DA6808680240DA610A60DA7A900706D581
:1010100098491A69086802401A620A60DA7A510728
:1010200006D595495A69086802405A620A60DA7A18
:10103000160705D591499A69086802409A620A60C4
:1010400062B61B688E4AD968914206D08D4E8E4892
:101050008E491E60DA60186119600021287801F05D
:10106000A5FD3C23013BFDD1AB681B684FF000415F
:101070000022D9625A63DA6A002AFCDA4FF0004192
:101080000022986BD9625A63DA6A002AFCDA996BFB
:101090004FF000460022DE62C9B25A63DA6A002AC3
:1010A000FCDA41EA00223C2122809A6B0A46013A8E
:1010B000FDD14FF000410022D9625A63DA6A002A5A
:1010C000FCDA4FF000410022986BD9625A63DA6A69
:1010D000002AFCDA4FF000460022996BDE625A6368
:1010E000DA6A002AFCDA9A6B0004090200F47F0035
:1010F00001F47F410143D2B20A43B2F5000FA8BF09
:1011000042F07F4262603C22013AFDD14FF0004143
:101110000022D9625A63DA6A002AFCDA4FF00041F1
:101120000022986BD9625A63DA6A002AFCDA4FF01F
:1011300000460022996BDE625A63DA6A002AFCDA02
:101140009A6B0004090200F47F0001F47F4101431F
:10115000D2B20A43B2F5000FA8BF42F07F42A260AC
:101160003C22013AFDD14FF000410022D9625A637E
:10117000DA6A002AFCDA4FF000410022986BD9624B
:101180005A63DA6A002AFCDA4FF000460022996BB3
:10119000DE625A63DA6A002AFCDA9A6B00040902FA
:1011A00000F47F0001F47F410143D2B20A43B2F55B
:1011B000000FA8BF42F07F42E2603C22013AFDD11D
:1011C0004FF000410022D9625A63DA6A002AFCDA41
:1011D0004FF000410022986BD9625A63DA6A002A04
:1011E000FCDA4FF000460022996BDE625A63DA6A3D
:1011F000002AFCDA9A6B0004090200F47F0001F473
:101200007F410143D2B20A43B2F5000FA8BF42F0BA
:101210007F4222614FF000410022D9625A63DA6AAC
:10122000002AFCDA4FF000410022986BD9625A6321
:10123000DA6A002AFCDA4FF000410022986BD9628A
:101240005A63DA6A002AFCDA3C229B6B1346013BA4
:10125000FDD10121287801F0A9FCAA68D37A002BDE
:1012600029D0DD0716D50A4BD1691960D37A11E070
:1012700080E100E084E100E088E100E08CE100E052
:101280000101003A01403F000101007A00003F8067
:1012900000E100E0980703D5084B116A1960D37A82
:1012A000590703D5064B516A1960D37A1B0702D53B
:1012B000044B926A1A60204670BD00BF04E100E052
:1012C00008E100E00CE100E070B58368DA7A0446DA
:1012D0000D46002A25D072B6DA7AD60706D52F49F0
:1012E000DA6808680240DA610A60DA7A900706D59F
:1012F0002B491A69086802401A620A60DA7A5107B3
:1013000006D528495A69086802405A620A60DA7AA2
:10131000160705D524499A69086802409A620A604E
:1013200062B61B68214AD968914206D0204E2148F6
:1013300021491E60DA60186119600021E07801F02F
:1013400035FC0121207901F031FCA3681A684FF0C7
:101350000043D3625563D36A002BFCDA0121E078A5
:10136000936B01F023FCA268D37AB3B1DC0703D5F9
:10137000124BD1691960D37A980703D5104B116AC3
:101380001960D37A590703D50E4B516A1960D37A85
:101390001B0702D50C4B926A1A6070BD80E100E019
:1013A00084E100E088E100E08CE100E00110003819
:1013B00001403F000110007800003F8000E100E0A4
:1013C00004E100E008E100E00CE100E070B58368B2
:1013D000DA7A04460D46002A25D072B6DA7AD607A4
:1013E00006D53149DA6808680240DA610A60DA7ABB
:1013F000900706D52D491A69086802401A620A60EA
:10140000DA7A510706D52A495A69086802405A62B1
:101410000A60DA7A160705D526499A6908680240F3
:101420009A620A6062B61B68234AD968914206D064
:10143000224E234823491E60DA601861196000219A
:10144000E07801F0B3FB0021207901F0AFFBA36845
:101450001A684FF00043D3625563D36A002BFCDA5D
:1014600001212079936B01F0A1FB0121E07801F0CB
:101470009DFBA268D37AB3B1DC0703D5124BD169C7
:101480001960D37A980703D5104B116A1960D37A83
:10149000590703D50E4B516A1960D37A1B0702D541
:1014A0000C4B926A1A6070BD80E100E084E100E0BC
:1014B00088E100E08CE100E00110003801403F00CD
:1014C0000110007800003F8000E100E004E100E04E
:1014D00008E100E00CE100E0F8B504469DF8187062
:1014E0009DF81C609DF82050437081602270084672
:1014F000A7701146E6702571FFF7C2FC6178A068FD
:10150000FFF71CFCA068FFF7DBFBA078012101F0CE
:1015100061FBE078012101F05DFB2079012101F000
:1015200059FB0021A07801F041FB642001F058FB39
:101530000121A07801F03AFB642001F051FB204624
:10154000A021FFF743FF2046AE21FFF73FFF2046D3
:10155000C821FFF73BFF2046A221FFF737FF2046B7
:101560002F21FFF733FF20462121FFF72FFF2046D1
:101570008121FFF72BFF20462021FFF727FFAF2116
:101580002046FFF723FF04F10B0304F20B21002296
:1015900003F8012F8B42FBD1E078012101F006FB1B
:1015A0002046F8BD2DE9F04F01EB410183B01F4605
:1015B000C3EB011A06330193A2F108094FF00108A9
:1015C000154B0AEB070E9E4414464E46002107F1C8
:1015D000800C1EF8015023460631BB467DB1072C16
:1015E00004DDF3080CEBC31BA6EBC30300EB0B05F8
:1015F00008FA03F395F80CB04BEA03032B73302978
:1016000004F1010406F10106E3D1019B01379F4279
:10161000D6D103B0BDE8F08F9C6F00002DE9F843F0
:101620000C688946074690461D4694B12646D9F86F
:1016300008301E44A6420AD014F8011B2B4642462D
:101640003846FFF7AFFFB44205F10605F4D1BDE817
:10165000F8831421484600F011F9D9F80040002C15
:10166000E4D11421484600F009F9D9F80060DEE71A
:101670002DE9F04F01EB410183B09E46C3EB011B06
:1016800006330193A2F1080A4FF00109154B0BEB49
:101690000E0C9C441546574600240EF180081CF899
:1016A00004602B46063471466EB1072D04DDFB083D
:1016B00008EBC311A7EBC303014409FA03F30E7B44
:1016C00026EA03030B73302C05F1010507F101072E
:1016D000E5D1019B0EF1010E9E45D7D103B0BDE8C7
:1016E000F08F00BF9C6F00002DE9F8430C6889461D
:1016F000074690461D4694B12646D9F808301E4448
:10170000A6420AD014F8011B2B4642463846FFF782
:10171000AFFFB44205F10605F4D1BDE8F88314210A
:10172000484600F0ABF8D9F80040002CE4D1142171
:10173000484600F0A3F8D9F80060DEE7F8B5AE211E
:101740000546FFF743FE28464021FFF73FFE05F11F
:101750000C04B02739462846FFF738FE10212846EA
:10176000FFF734FE00212846FFF730FE04F1800623
:1017700014F8011B2846FFF7A7FDA642F8D1013750
:10178000FFB2B42F3446E5D12846AF21BDE8F8407A
:10179000FFF71CBE10B4EFF3108272B6437F33B96B
:1017A000017F012908D0032910D00123437702B912
:1017B00062B65DF8044B7047114C2168A1B1114924
:1017C00043610B68836108605861EEE70E4C216845
:1017D00081B10E4943610B688361086058610C4B0D
:1017E0004FF080511960E0E7064B41618161206054
:1017F0001860DAE7054B4161816120601860EEE70F
:101800001C15FF1F1815FF1F1015FF1F1415FF1FB4
:1018100004ED00E070B5EFF3108272B60C4C206856
:1018200080B10C4E00254369236073B19D6102B9FC
:1018300062B6457783689847EFF3108272B62068E6
:101840000028F0D102B962B670BD3360EFE700BF87
:101850001015FF1F1415FF1FFFF7DCBF024A1368A6
:1018600001331360704700BF2815FF1F10B50446F1
:10187000006802F07FF9204610BD00BF38B543680C
:101880008B4201D3012038BD0D460446013100686A
:1018900002F0E6FC0028F6D0A36884E82100002BC3
:1018A000F0D10370EEE700BFF8B50446154632B933
:1018B000036803B11A700023A3602046F8BD0E46EA
:1018C0001146FFF7DBFF074648B9206810B102F068
:1018D00051F9276000236360A3602046F8BDA5602E
:1018E0003146206803F03AF8E7E700BF38B5002337
:1018F0000446036043608360037341B108460D46AC
:1019000003F09EF8294602462046FFF7CDFF204609
:1019100038BD00BF0023884210B504460360436011
:101920008360037303D08A680968FFF7BDFF204610
:1019300010BD00BF38B5054608460C4603F080F8D8
:10194000214602462846BDE83840FFF7ADBF00BF3C
:1019500010B50446002386B023606360A360237340
:10196000084601A902F0FCF801A92046FFF7E2FFB2
:10197000204606B010BD00BF10B500238AB0044653
:1019800003604360836003736A46881C00F0A8FC10
:1019900030B101462046FFF7CDFF20460AB010BD0A
:1019A000A06020460AB010BD814211D038B505466E
:1019B00000680C4608B102F0DDF823686168A2688F
:1019C0002B6000236960AA6023606360A36038BD58
:1019D000704700BF884210B5044601D0FFF7E4FF0E
:1019E000204610BD2DE9F84303680F46BB4204466C
:1019F000816815460AD85A18974207D2C3EB0709DF
:101A00004FF0010835B92046BDE8F8834FF00008D3
:101A1000002DF8D04E1931462046FFF72FFF002841
:101A2000F1D0B8F1000F0ED02368A0682A4603EB6E
:101A30000901184400F0E0FA236800229A55A660D4
:101A40002046BDE8F8832068A3683946184402F0B0
:101A500085FFF4E710B58A6809680446FFF7C2FFFE
:101A6000204610BD38B5054641B108460C4602F087
:101A7000E7FF214602462846FFF7B4FF284638BD57
:101A8000036853B1096811B1184602F0FDBD8068C2
:101A900010B118787047184670470B68002BFAD0C1
:101AA00088680028F8D018784042704708B58268E6
:101AB0008B689A4201D0002008BDFFF7E1FFB0FA21
:101AC00080F0400908BD00BF9A42F8B504460E46B2
:101AD00002D911461A460B460021A1602173B06855
:101AE0002160824261600ED8834228BF03461D46B2
:101AF00033685F5D59553368991806D02046FFF763
:101B000019FF33685F552046F8BDA1605F55FAE7BD
:101B100010B58B680446FFF7D7FF204610BD00BF05
:101B2000374A384913681B06FCD40B6813F080034E
:101B3000F8D172B634490A78002A5FD0334A344863
:101B4000F0B4344C176806682568D4680C303E44FD
:101B5000143200681268304F35442C44204402444B
:101B6000C2F34E022D4E2E482E4D2F4C42F4004211
:101B70003A60376806682D682C4A24680C303E4469
:101B8000006812682A4F35442C4420440244C2F3B2
:101B90004E02284E2848294D294C42F400423A6012
:101BA000376806682D68274A24680C303E44006870
:101BB0001268254F35442C4420440244C2F34E029F
:101BC000224E2348234D244C42F400423A603768A9
:101BD00006682D68214A24680C303E44006812686B
:101BE00035442C4420440244C2F34E021C4842F4C3
:101BF000004202600B7062B6F0BC704762B670477C
:101C000024B0034024B00B402215FF1F38B003401E
:101C10003CB0034040B003402CB0034058B00340F8
:101C20005CB0034060B0034064B003406CB003405C
:101C300030B0034038B00B403CB00B4040B00B40DC
:101C400044B00B404CB00B402CB00B4058B00B4094
:101C50005CB00B4060B00B4064B00B406CB00B400C
:101C600030B00B4030B42948294A2A4B2A4D602411
:101C7000E121047011701B78284C082B30D00A2BFE
:101C80002748284937D00C2B0CBF35225D22122360
:101C90002A60236002600B60234B24491B78244A8E
:101CA000BBB101230B601360224B23491B78234AED
:101CB000012B26D9042B0FD9082B1ED9102B94BF2A
:101CC000862387230B6013601D4B01221A7030BCE2
:101CD00070470B601360E7E784230B601360F3E742
:101CE00000F58E200F490830212213232A6023603B
:101CF00002600B60D0E73922F7E785230B601360A1
:101D0000E2E780230B601360DEE700BF004007407E
:101D1000014007407807FF1F08B003400CB00340A4
:101D200008B00B400CB00B402515FF1F20B003403E
:101D300020B00B407907FF1F24B0034024B00B40B4
:101D40002215FF1F68B10E4A1378C3B90D490978EF
:101D50000120107019B10C490C4A0B601360FFF799
:101D600081BF074B1A7852B1064A18701378002BBE
:101D7000F5D0054A054B10601860FFF773BF704738
:101D80002515FF1F2215FF1F24B0034024B00B4070
:101D90000C2830B417D91023984228BF18461C4687
:101DA000104A114D1178181A8C42287018D00F491A
:101DB00013700B7823B10E490E4A00230B60136099
:101DC00030BCFFF74FBF0A2802D90C231C46E7E7B7
:101DD000082802D90A231C46E2E708231C46DFE74D
:101DE00030BC70477807FF1F2115FF1F2215FF1F0A
:101DF00024B0034024B00B4010B51A4B1B780446A6
:101E0000BBB9012C19D9042C174B18490AD9082C35
:101E100020D9102C17D907221A600A60144A2023EF
:101E2000137010BD04221A6013460A60104A137022
:101E300010BDFFF775FE012CE5D80B4A0023136097
:101E40000B4A137010BD06221A600A60084A10235C
:101E5000137010BD05221A600A60054A082313702A
:101E600010BD00BF2215FF1F24B0034024B00B405B
:101E70007907FF1F47282FD8334B2DE9F0411E5C0F
:101E8000FF2E2BD0314B1B78002B2AD132062CD4BD
:101E900072B62F4D2F4C2F46012326602B7062B651
:101EA00072B623681B060CD43B781BB9F4E72B7879
:101EB000002BF1D062B601F035FD72B6236818062A
:101EC000F5D5254B1B6800222A7062B6234A10788C
:101ED00043FA00F0BDE8F081002070470020BDE823
:101EE000F081FFF71DFE3206D2D572B61C4DDFF829
:101EF0007C801C4C06F04007FFB206F03F06D8F885
:101F00000030DFB123F01003C8F800300123266051
:101F1000134A2B7062B672B6236819060CD4137874
:101F20001BB9ECE72B78002BE9D062B601F0FAFC84
:101F300072B623681B06F5D50B4BC3E743F01003BD
:101F4000C8F80030E2E700BF9C9F00002215FF1F89
:101F50002415FF1F00B0034010B003402115FF1FE0
:101F60002315FF1F00B00B4010B00B400CB00B400E
:101F70000A4A0B49136843F4805313600B7843B942
:101F8000084BC0221A70084B80F30C0000B2188076
:101F90007047044B80221A70F5E700BF2C80044084
:101FA0002515FF1F21C00C4000C00C400A4A0B49F8
:101FB000136843F4005313600B7843B9084BC022F5
:101FC0001A70084B80F30C0000B218807047044B65
:101FD00080221A70F5E700BF2C8004402515FF1FF2
:101FE00021D00C4000D00C4008B5FEF7F5FAFEF702
:101FF0003BFB01F097FCFAE701B441EA000313F060
:1020000003036FD1403A41D351F8043B40F8043BFD
:1020100051F8043B40F8043B51F8043B40F8043BC2
:1020200051F8043B40F8043B51F8043B40F8043BB2
:1020300051F8043B40F8043B51F8043B40F8043BA2
:1020400051F8043B40F8043B51F8043B40F8043B92
:1020500051F8043B40F8043B51F8043B40F8043B82
:1020600051F8043B40F8043B51F8043B40F8043B72
:1020700051F8043B40F8043B51F8043B40F8043B62
:1020800051F8043B40F8043B403ABDD2303211D302
:1020900051F8043B40F8043B51F8043B40F8043B42
:1020A00051F8043B40F8043B51F8043B40F8043B32
:1020B000103AEDD20C3205D351F8043B40F8043B02
:1020C000043AF9D204320AD0D2071CBF11F8013BFE
:1020D00000F8013B03D30B7803704B78437001BCCD
:1020E000704700BF0C2A4AD310F0030311D0C3F18C
:1020F0000403D21ADB071CBF11F8013B00F8013BB7
:1021000007D311F8013B00F8013B11F8013B00F83F
:10211000013B11F003033FF475AF30B4043AC91A20
:10212000C3F1040C51F8044B022B19D0032B0BD034
:10213000240A51F8043B1D0644EA050440F8044B08
:102140001C46043AF4D216E0240E51F8043B1D025A
:1021500044EA050440F8044B1C46043AF4D20AE071
:10216000240C51F8043B1D0444EA050440F8044BD8
:102170001C46043AF4D20432B1EB0C0130BC043AF0
:10218000A0D3013A11F8013B00F8013BF9D20B78DA
:1021900003704B7843708B78837001BC704700BF2D
:1021A00008B5104C08E0236859050DD423681A05BA
:1021B0000FD42368DB0411D423685803F3D500F04F
:1021C0009DFE23685905F1D500F00EF823681A0525
:1021D000EFD500F009F82368DB04EDD500F004F832
:1021E000EAE700BF3480044008B5FFF7D9FF00BF1D
:1021F000014B10221A80704700200540704700BF35
:10220000094908B50B6830B16A461844A2F5005276
:10221000904202D20860184608BD01F05BFC0C2316
:1022200003604FF0FF3008BD7C07FF1F084A13789A
:10223000802B01D0002070470649074B07480860F3
:10224000002119701378802BFCD00120704700BF4B
:1022500003E007404480044001E0074000002822DA
:10226000094A1378012B01D00020704703F1804305
:1022700003F5FC23602119701378802BFCD1034BEC
:10228000034A1A600120704703E00740448004407D
:1022900000000602F0B44D1E2E46002400E001347A
:1022A000B0FBF2F302FB1300092800F130078ABFEC
:1022B0003730F8B2C0B206F8010F1846002BEED145
:1022C0000A1953704CB1107815F8016F287001335A
:1022D000E01A834202F80169F5DB0846F0BC70475A
:1022E0002DE9F0472DED028BB4EE400A80EAE07351
:1022F000F1EE10FA84B0B0EE408A05461446A3EB26
:10230000E07380F12D81DFEDC87AB0EEC07AB4EED3
:10231000677AF1EE10FA42DDB5EEC00AF1EE10FA7E
:102320004CBF04200320984221DB002DC0F27381B2
:102330000020B5EEC08AF1EE10FA48BF23462AD439
:1023400049214E22462321706270A3700334002875
:1023500000F065812044202304F8013BA042FBD11A
:102360000023037004B0BDEC028BBDE8F087002DA4
:10237000A3EB0000DDDA002800F04D8113182022C5
:1023800004F8012B9C42FBD1B5EEC08AF1EE10FAA5
:1023900040F11C8100202D221A705C1CD0E70F46F2
:1023A00002AA01A9384601F083FBBA468046DDF84F
:1023B0000490002F59D0C9F10003BB4200F396806E
:1023C000404602F03DFB0646B145B8BF0136B9F1C3
:1023D000000F40F09A800136DDF808E0BEF1000FF2
:1023E00055D00136A81B002804EB060155DC234616
:1023F0002D221A700133B9F1000F65D137B11A4699
:10240000302002F8020B2E20587013468B4220D247
:102410005F1C98F800201A708F4208F1010819D04B
:10242000019A4FF02E0E0BE083F801E002338B424D
:1024300003F101070DD218F8010B18708F4209D073
:10244000013A0192002AEFD03B468B4203F101078B
:10245000F1D31946002DC0F2A380002320460B7053
:1024600004B0BDEC028BBDE8F087B9F1000FA2D13A
:1024700090F800806D496E4A012301939946B8F1A6
:10248000340F8CBF884690464FF0FF3395E7A81B6A
:10249000002804EB060140F3C480014422460138C1
:1024A0004FF0200C02F801CBC2F101030344234496
:1024B000002BF7DC20EAE07301332344BEF1000F68
:1024C00096D1B9F1000F99D0A0DA002F9ED01A460C
:1024D000302002F8020B2E275F70C9EB020302F8CE
:1024E000010B9342FBD1002201928FE7C7F1000953
:1024F0000126B1453046B8BF0136B9F1000FDFF80B
:102500003081CDF804903FF466AFBFF665AF002F81
:102510003FF462AF09EB0703984207F102067FF62A
:102520005BAF002F06DDF2EE047ABAF1010A28EE65
:10253000278AFAD102AA5046B0EE480A03A901F050
:10254000B7FADDF80490039A7B1CC9EB02029A42A9
:1025500008BF09F10109804608BFCDF804903BE7A8
:10256000B5EEC00AF1EE10FA4CBF042003209842E9
:1025700034DA002DA3EB000339DB18EE102A002A11
:1025800030DB4E2241212270A27061700334002B97
:1025900045D0E018202304F8013B8442FBD1DFE65C
:1025A000A8194342002B6FEA00007FF756AF0A4696
:1025B000202502F8015BC2F1010303440B44002B08
:1025C000F7DC20EAE0730133194446E749204E2145
:1025D0004622187059709A70D81CC1E6002D18DB7D
:1025E0000023CAE720462D220270441CC9E783B1AC
:1025F000D018202304F8013B8442FBD118EE103A96
:10260000002B0ADB4E23412203708370427003309B
:10261000A6E62046F2E72346B6E60023E3E7204697
:102620009EE62346E7E600BFFFFF7F7FE89F0000AE
:10263000E49F000010B4114B53F8302092F8804210
:1026400034B1012379B182F880305DF8044B7047D2
:1026500003EBC0035B681A6851B922F002021A60EA
:102660005DF8044B704782F800315DF8044B704709
:1026700042F003021A605DF8044B7047EC9F0000C3
:102680001C4A02EBC00301295B6811D004291BD04E
:1026900052F83000002280F8802229B1022920D08F
:1026A000032922D01A6070474FF480721A60704775
:1026B00052F830004FF4A27280F880121A601A6843
:1026C00022F020021A60704752F830104FF4A272C4
:1026D000012081F880021A601A6842F020021A6014
:1026E000704740F203121A6070474FF481721A600B
:1026F000704700BFEC9F000030B4054B054D064C01
:10270000002210211A602A602060196030BC7047D6
:1027100014D0034004D0034000D00340704700BFF2
:1027200038B5A0F14203012B044624D900297ADDF3
:10273000994B1B78012505FA03F28A4202D83F28FB
:102740002CD938BDC21E012A30D9A0F11D02012AA0
:1027500078D90E285BD9A4F12302032A5CD9A4F10D
:102760001002012A94BF8D4A8D4A126802FB0112A1
:1027700022FA03F320E0884B1B780B2B0AD90C2B91
:102780001CBF0C3B1941422C084657D0BDE83840CD
:10279000FFF70CBCC3F10C039940F4E72946FFF79F
:1027A00049FF2946BDE83840FFF76ABF7D4A1268F5
:1027B00002FB011222FA03F3A21E242A00F2E38094
:1027C000DFE812F0DA00D300CC00C500BE00B7008D
:1027D000B000A900A200E100E100E1009B00E100DF
:1027E00094008D00E100E10086007F007800710018
:1027F000E100E100E100E100E1006A006300E100C6
:10280000E100E100E1005C0055004E00470044F2A9
:102810008412C240D2079ED5634A126802FB01129D
:1028200022FA03F3C8E73F288BD80021FFF702FF05
:1028300020460121BDE83840FFF722BFBDE83840FF
:10284000FFF796BB594A126802FB011222FA03F302
:10285000B2E75749574A0B604FF45173136038BDC4
:102860005549564A0B604FF45173136038BD5449B3
:10287000544A0B604FF45173136038BD5249534AA8
:102880000B604FF45173136038BD5149514A0B60CE
:102890004FF45173136038BD4F49504A0B604FF4E9
:1028A0005173136038BD4E494E4A0B6040F24443A9
:1028B000136038BD4C494D4A0B6040F244431360ED
:1028C00038BD4B494B4A0B6040F24443136038BD5E
:1028D00049494A4A0B6040F24443136038BD4849B5
:1028E000484A0B6040F24463136038BD4649474A8A
:1028F0000B6040F24463136038BD4549454A0B60A4
:1029000040F24443136038BD4349444A0B6040F2EF
:102910004443136038BD4249424A0B6040F244438D
:10292000136038BD4049414A0B6040F24443136094
:1029300038BD3F493F4A0B6040F24443136038BD05
:102940003D493E4A0B6040F24443136038BD3C4968
:102950003C4A0B6040F24443136038BD3A493B4A5D
:102960000B604FF45173136038BD3949394A0B601D
:102970004FF45173136038BD3749384A0B6040F249
:102980004443136038BD3F2C3FF6DBAE7F29D4BFF4
:1029900000210121204649E78007FF1F08900C40D5
:1029A000088003400890034008900B4008800B40CB
:1029B00048900B402CB0044040900B4028B004409D
:1029C00038900B4024B0044030900B4020B00440BD
:1029D00018800B404CA0044010800B4048A00440DD
:1029E0001880034008B004401080034004B0044045
:1029F0004080034018C004403880034014C00440A5
:102A000018900C4004A0044010900C4000A004401A
:102A100018900B4004C004402880034010B00440CC
:102A2000208003400CB0044028900B400CC00440B0
:102A300020900B4008C004403080034010C0044088
:102A4000488003401CC00440189003403490044068
:102A5000109003403090044010900B4000C00440A0
:102A6000A0F11001C9B2012970B45BD9DFED3B7A46
:102A70003B4AB4EEE70AF1EE10FA47F6122346BFDE
:102A80001A4602250125DFED376A002322FA03F4F6
:102A900007EE904AF8EEE77A27EEA67AB4EEC70A78
:102AA000F1EE10FA07DA0133072BEFD1D20907EE66
:102AB000902AF8EEE77A87EE807A4FF6FF74C21E0E
:102AC000F6EE007A77EE677AFCEEE77A17EE906A18
:102AD000A64228BF2646012A344637D917280ED9E0
:102AE000A0F11D02012A35D90E281ED9233803284A
:102AF00020D9012914D81C4A1C4E1D481DE01D4A2E
:102B0000C24002F0010282F00106002AE8D01A4A0F
:102B10001A481B49166043EAC50306600C6013603F
:102B200070BC7047174A0125ADE744F28412C240D9
:102B3000D207DBD5144A154E154843EAC5030021D8
:102B4000116031600460136070BC7047114A124E0E
:102B50001248F2E7124A134E1348EEE7C0E1E44090
:102B6000008793030000803700900C4004900C40D5
:102B700008900C406006F000008003400480034091
:102B8000088003400024F40000900B4004900B40A8
:102B900008900B40009003400490034008900340CD
:102BA00000800B4004800B4008800B403F2801D878
:102BB000FFF740BD704700BF3F2806D8044B53F8CD
:102BC000303093F80002C0B270470020704700BF59
:102BD000EC9F00003F2801D8FFF752BD704700BFAF
:102BE0002DE9F843054672B6224F234B234A1B6852
:102BF0003C68126862B6520102D5322B88BF01349C
:102C0000B5B3C3F52F3303F21F331D4EDFF86890C1
:102C1000DFF868809B084FF47A72A6FB031302FB6F
:102C200004F404EB930472B6D9F800103A68D8F8AB
:102C300000E062B6C1F52F3303F21F339B08A6FBF9
:102C400003031EF0806FC4EB93034FF47A7002D03D
:102C5000322988BF013200FB0233B3F57A7F04D3F7
:102C6000013D05D004F57A74DDE700F05BFEDAE79C
:102C7000BDE8F8832815FF1F18E000E004ED00E030
:102C8000176CC116F8B54F4B4F48DFF860C14F4C79
:102C90004F49DFF85CE14F4E4F4D504F4FF000620F
:102CA0001A604FF080521A604FF000521A604FF0D5
:102CB00080421A604FF000421A600022282302600E
:102CC0004EF6FF70CCF80000CEF8003023600EF511
:102CD000012E0B6033602B6006F500263B6005F586
:102CE0000025A36207F500278B6204F5012401F596
:102CF000012106F6E87605F6E87507F57F671031DD
:102D00000EF1100E203433602B60CEF800303B60A3
:102D10000B602360324CBB618B6109212160A7F5F8
:102D2000002704F58054203F08343A602060BB60DF
:102D3000E36047F8041C04F5FD2407F5FE2704377B
:102D400004F2FC7422603860A360FB6044F8041C49
:102D5000083404F6FC74C7F8FC2F2060A4F5E124C5
:102D6000A4F2DC7433602B60C7F8F81F21681D489B
:102D700041F40071216001681B4C0EF57F4E0EF18D
:102D8000E80E07F5883706F5803605F5803541F001
:102D900000710160CEF8002047F6FF71082239600B
:102DA00033602B602260FEF75DFFFFF7B7FC142055
:102DB000FFF716FF00F0DCFC4FF48C70BDE8F84024
:102DC000FFF70EBF04E100E00480034014800340DD
:102DD0001C800340248003402C8003403480034047
:102DE000008003400480044000900C4008800340B1
:102DF0000C800340F0B472B61A491B4E012311F83F
:102E0000014B194F9A00240742F0010505D556F8E9
:102E1000324064B156F83520BAB10133052BEED1FA
:102E200062B6124B00221A70F0BC00F023BD0F4CAA
:102E30000F4D217807EB431308300139586021709A
:102E400047F8325062B6F0BC7047084A0949137817
:102E500007EBC5040830013B6060137047F835107C
:102E600062B6F0E7ECA100000000FF1F0116FF1F93
:102E700088004000C8004000431E032B1DD81B4A99
:102E8000400140F0100030B4104472B6184CE25CBF
:102E9000032A1BD8DFE802F00212151703220D885F
:102EA000E25410F0080F14BFC823882343EA0543F7
:102EB00008314160036062B630BC704708300222BE
:102EC000EDE70522EBE708300422E8E7094A52F86B
:102ED000230038B1084A52F82300416042F8231019
:102EE00062B6E9E742F82310034AF7E70000FF1F44
:102EF0001016FF1FD815FF1FE815FF1F2DE9F04F13
:102F0000DFF814B3DFF814A387B044E0AD4F4FEA05
:102F1000930807EBC809013ED9F8042003F0080321
:102F2000F6B2A2F1080003F0FF04002B40F0038189
:102F300057F838301B0C99B222F8081C002B00F00F
:102F4000F180A14B22F8064C42F8044C53F826209D
:102F5000002A00F06C819D4D55F8263058609C4C3D
:102F600045F8260034F81630194424F8161000F0FD
:102F700061FC002800F05481964A974B19F0080F25
:102F800000F1080018BF1346C9F8040047F83830AC
:102F900008238BF800309BF80040E4B260071BD593
:102FA0008E4B1B78ABB18E490A7802F0FF032AB131
:102FB000013BDBB20B70002B00F0B58389490A7826
:102FC00002F0FF032AB1013BDBB20B70002B00F0D3
:102FD000F68004238BF8003004F0080303F0FF02AE
:102FE000002B00F0D5809AF80030DBB21E098DD19D
:102FF0009C08744F57F8342007EBC401C2F38302D6
:10300000013A49680C2A7ED8DFE802F081817D7D93
:103010007D7D7D7D427D7D7D07000868724B734D0F
:1030200001936C4B4A68724E47F8343081B240F2DB
:1030300081646D4B6A60286000220120A1423A61E0
:103040001A60BA61307000F2F680B1F5D06F80F08E
:10305000E882B1F5817F00F0D38200F2D881802927
:1030600000F04D81822940F09282A988614B01F0E5
:103070007F01042900F28C825F4C89000B4422708E
:1030800062701A78930740F13883207002203AE189
:10309000554B01931A6862B3584B5949544E1888DE
:1030A0000C7896F800E04028054684F0010C28BF13
:1030B000402544F00204BEF1000F81F800C0A0EBEF
:1030C000050007EBC40C0CBF8821C82180B28EF02C
:1030D000010E41EA0541CCF80420188086F800E092
:1030E0002A4447F8341010B9402D18BF0022019B24
:1030F0001A603E4B1A88B2F5A06F04D100219A786D
:103100005970404B1A70404A0123137040E7374A08
:10311000158842F22100854200F052812D4A47F87D
:103120003420F0E72B4A2C4B19F0080F18BF134638
:1031300047F838302CE700F09DFB344A344952F808
:103140002630002B00F02D8158688C5D42F8260057
:1031500003F10802C9F80420032C05D8DFE804F0C5
:10316000120F150204228A551A8819F0080F0CBF95
:103170008823C82343EA024347F8383008E702228D
:103180008A55F1E703228A55EEE705228A55EBE7D7
:10319000E00700F17881210600F1A281A20706D59F
:1031A0001C4A1D4913780220DBB213700870E30635
:1031B00002D5194B10221A7007B0BDE8F08F00F04D
:1031C0008DFB06E70000FF1F8415FF1F3015FF1F52
:1031D0007416FF1FC8004000880040000C16FF1F37
:1031E0009515FF1F1416FF1F2C15FF1FF815FF1F45
:1031F0009415FF1FC02007400416FF1F4015FF1F36
:103200000016FF1F9820074094200740D815FF1F85
:103210001016FF1F8820074080200740902007409D
:10322000B74A47F83800137801331370B0E643F813
:103230002600B44D93E642F22104A14200F0AD8095
:1032400000F20E81B1F5086F00F05481B1F5106FF6
:1032500040F09D81AC4AA9781170AC4D042402E085
:103260000134142C0CD057F834301906F8D505EB7E
:10327000C40301345868083800F0FCFA142CF2D169
:10328000A349A44BA44A0291A449A54C9D4D039483
:1032900005964FF0000988461C461646049520689E
:1032A00028B1456800F0E6FA2846002DF9D1002340
:1032B0002360049B30681A46002342F8293028B165
:1032C000456800F0D7FA2846002DF9D10022326077
:1032D000029A98F800301146002241F8042B039A14
:1032E0000291023B4FF0000122F81910032B00F26B
:1032F000B481DFE813F0E201AE01E201AE01894CD6
:10330000022022706270EA88824280F00D82864933
:103310000D78402A45F0020E944607EBCE0028BFF8
:103320004FF0400C04EB0C0344600293CCEB020022
:103330004FEA0C484FF001090022C82444EA080370
:1033400085F0010447F83E3032700C70DFF8BCE1C4
:10335000764BDFF8D481002840F02081BCF1400F8B
:103360001BD144F0020407EBC403029FDFF89CE189
:103370005F60002A40F02781020442F0880286F84C
:1033800000900D7007444EF834203B46402804D18D
:103390000020674A019910800B60664A0123137070
:1033A000B1E68B5D032B00F2248101A252F823F0D9
:1033B000912F0000912F0000D5340000DB34000075
:1033C000928862B95C4ACD1D11F8013B02F8013FB9
:1033D0008D42F9D1594A1268862A00F0C9805249B3
:1033E000524E0878327840F0020580F001000870F3
:1033F00007EBC501002A4FF00000486082F001028F
:103400000CBF8821C82147F83510327086E640F29B
:103410000232914240F0B080A98801F07F01042976
:1034200000F2B5806A88002A40F0B180444C8900DF
:103430000C448146217841F0020121700020029065
:1034400080468446044638490D7845F0020E07EB65
:10345000CE03B9F1000F5C600CBF8824C8246DE76F
:1034600042F22124A14240F08E80A988002940F038
:103470004281344B344A354C1B68AD781360814629
:103480000A462570DAE72B49204B3148264EDFF8F3
:10349000B0C0304DDFF8D4E02F4F02240C702F4C19
:1034A00018605C6098602E48D8601A619A610D239C
:1034B00032702C4C8CF800302B4EFF232B700120E7
:1034C0009F258EF800303A7033702570087007B071
:1034D000BDE8F08F00238B555AE501238B5557E546
:1034E0001749224B80220D2008701A70A2077FF521
:1034F0005EAE55E6044A0B4C1278227003E700BF1B
:103500000116FF1F3015FF1F0C16FF1F0000FF1FC5
:10351000E815FF1F8415FF1FD815FF1F1016FF1F8A
:103520007416FF1F0416FF1F0016FF1F9415FF1FC0
:103530004015FF1F942007407B16FF1F7C16FF1FBE
:10354000C02007402815FF1F8416FF1F2016FF1FED
:103550008800400088200740982007404415FF1F3E
:103560009815FF1F842007408C20074080200740CB
:10357000754A0F21117032E7B1F5A06F07D1002213
:103580004FF001095AE742F221329142F7D06F4BD6
:103590000F221A706E4A01231370B4E540287FF69B
:1035A000E0AE44F002040EEBC401029E4E60AAB1EC
:1035B00083F80090674A88F800503346403840331B
:1035C0004EF83420E5E6029B86F80090020442F0B3
:1035D000C8020D7003444EF83420D7E683F80090FB
:1035E000029B5D4A88F80050403840334EF8342042
:1035F000CFE619F0080F0CBF022303238B55C7E455
:10360000A98801F07F010429C1D86A88002ABED1A7
:103610004E4C89000C448146217821F00201217032
:103620000CE74E4A5468002CB1D06888B5F804E025
:1036300003E00C325468002CA9D013888342F8D1DF
:1036400053887345F5D1000A03280CBF20781089F0
:1036500059E64FF0010388F8003009F10109B9F18A
:10366000040F04F1040406F1040608F101087FF4D4
:1036700016AE3B4B059E3B4DDFF8F08000201870E6
:103680004FF0010918F8013B05F8043B1A0719D45B
:103690004FEA890444F0020244F00304002347F88F
:1036A000323047F83430304B9D4209F10109E9D1FD
:1036B00096F8009089F00102C0E64FF0000388F808
:1036C0000030CAE700F0B6F818B307EB49134FEA29
:1036D000890408305860204B47F8343000F0AAF8CD
:1036E00068B144F0010307EBC30208305060194A87
:1036F00047F83320CEE78146A0E6022003E6184BC8
:1037000044F001021B7847F83200154A0133137068
:10371000C0E7134B124A1B784FEA8904013347F87C
:1037200034001370DAE700BE4028844628BF4FF00B
:10373000400C04EB0C03CCEB00004FEA0C48029366
:1037400000224FF001097EE69515FF1FC0200740BB
:1037500094200740C800400088004000F0A100000D
:103760000116FF1FC4200740D4200740ECA1000031
:10377000F8B500F04FF9002324491A4601EBC300C5
:1037800041F833200133142B42604FF000041F48EE
:10379000F4D11F491F4A0B68DFF890C01E4E1F4F1F
:1037A0001F4DDFF88CE043F480230B60136843F077
:1037B0004073136003238CF8003001F52831A023F7
:1037C00033707C3102F5C922C0F307233B701032FD
:1037D000C0F307430B70000EFF2328708EF80030F3
:1037E000104D0CF8BC3C10481370012306F8AC3C9B
:1037F00081F8504070264FF40014102107F8183C4F
:103800002E70046082F8F810F8BD00BF0000FF1FA2
:103810003480044000D80040402107409C200740ED
:10382000B420074035E400E004E100E04421074013
:103830008020074072B60D480268B2FA82F30B2B63
:1038400010DC4FF00041D94022EA0102026062B66A
:10385000074803EBC303DB00C2180021C150104628
:103860005160704762B60020704700BF8407FF1F99
:10387000D003FF1F0D4B0E4AC31AA2FB03231B09E3
:103880000B2B0CD80B4A127852B972B60A484FF07B
:103890000041026821FA03F31A43026062B67047DE
:1038A000064A1278002AF0D0FFF7A4BAD003FF1F0F
:1038B000398EE3380116FF1F8407FF1F0C16FF1F08
:1038C000044B054A1B6890881BB11A885B88D31A81
:1038D000184470471C16FF1F7416FF1F38B50E4B97
:1038E0001B7873B90D4C216861B103F0FF054B885B
:1038F0000B800420FFF7C0FA256038BD084B012279
:103900001A7038BDFFF796FF0028F7D00146BDE8D2
:1039100038400420FFF7B0BA1516FF1F1816FF1F16
:103920001416FF1F2DE9F843314E337893B1314F10
:103930003A787AB90122D9073A7036D49A0719D45D
:1039400000225B073A7005D52B4B1A6812B1EFF3D2
:1039500005820AB1BDE8F883EFF3108172B61868EA
:1039600018B1264C2278002A2ED00029F2D162B656
:10397000BDE8F883DFF8908098F80020002ADFD0B7
:10398000DFF88890002405E0013498F80030E4B2B4
:10399000A34212D959F824502B6828461B6998472E
:1039A0000028F1D02B699847EEE7FFF789FFC8B9E7
:1039B000134B1B781BB93378C0E73378C0E73378F3
:1039C00003F0FE033370B9E745691D6001232370DE
:1039D0005DB1AA6101B962B6002545778368984751
:1039E0002570B7E700F014F8E2E7064B1D60F1E739
:1039F0008807FF1F2116FF1F1C15FF1F2015FF1F23
:103A00008907FF1F1815FF1F3C16FF1F2416FF1FF5
:103A1000704700BF10B584B072B6FEF707FC184AB5
:103A2000184B19491160702280211A701A461970BA
:103A300013781B06FCD5154B1C68FEF711FC62B60B
:103A4000134B9C429CBF04EB840464002046114C41
:103A500001A90A22FEF71EFC01A92046002311F845
:103A6000012B01333AB10A2B20F8022FF7D116238C
:103A7000237004B010BD5B00DBB2237004B010BD36
:103A80000400024000000240000007410C00024018
:103A90007F9698001808FF1F0B460146184600F055
:103AA00001B800BF13460A460146022001F076B86D
:103AB00070B5044610EE100A0D46164602F0EEFEF2
:103AC000324641EC100B002329462046BDE87040E9
:103AD00001F0C6B8014B1868704700BF580CFF1FB3
:103AE00070B50F4E0F4D761BB61018BF002405D0D1
:103AF000013455F8043B9847A642F9D10A4E0B4DC4
:103B0000761B06F03BFCB61018BF002406D001342B
:103B100055F8043B9847A642F9D170BD70BD00BF6F
:103B200088A3000088A3000094A3000088A30000DD
:103B3000931E222B10D80A2A10B506D000230C465B
:103B4000194400F0EBFF204610BD0028F6DA2D23C3
:103B50000B7040420123F2E700200870704700BF5D
:103B6000FFF7E6BF024B0146186800F00BB800BF34
:103B7000580CFF1F024B0146186801F053B900BFF3
:103B8000580CFF1F2DE9F04F01F10B05162D83B0E6
:103B9000064640F29F8035F0070500F1BF80A9423C
:103BA00000F2BC8000F058FBB5F5FC7FC0F09C82B1
:103BB0006B0A00F0BA80042B00F28381A80900F19F
:103BC000390E4FEA4E033830C44F07EB8303A3F19D
:103BD00008015C68A14207D1ACE0002A80F2AC8009
:103BE000E468A14200F0A680636823F003035A1B37
:103BF0000F2AF2DDB9493C6901F1080E744500F065
:103C0000B381636823F003035A1B0F2A00F39981E1
:103C1000002AC1F814E0C1F810E080F29E80B3F5EC
:103C2000007F80F06781DB0803F1010C01229B100B
:103C300002FA03F34A6851F83C80C4F8088001EBAB
:103C4000CC091A43A9F10803E3604A6041F83C40FB
:103C5000C8F80C40831001249C40944200F28A80F2
:103C6000144206D120F003006400144200F1040065
:103C7000FAD007EBC009CC468046DCF80C108C4526
:103C800007D173E1002A80F28181C9688C4500F078
:103C90006D814B6823F003035A1B0F2AF2DD0C469B
:103CA000D1F80CC054F8088F4B1945F001054D6050
:103CB00042F00101C8F80CC03046CCF808807B61A6
:103CC0003B61C3F80CE0C3F808E059609A5000F07B
:103CD000C5FA1FE0102921D800F0BEFA10250623EE
:103CE00002207E4F07EB8303A3F108025C68944235
:103CF00000F045816368E168A56823F0030323446D
:103D000030465A68E96042F001028D605A6000F066
:103D1000A5FA0834204603B0BDE8F08F00240C2338
:103D20002046336003B0BDE8F08F80234FF0400E93
:103D30003F2049E770465DE72344E1685A68A5687B
:103D400042F00102E96030468D605A6000F086FA68
:103D50000834204603B0BDE8F08F234430465A684B
:103D600042F001025A6000F079FA0834204603B0AC
:103D7000BDE8F08FBC68636823F00308A84504D34E
:103D8000C5EB08030F2B00F38C80554BDFF86091D7
:103D90001A68D9F8003001332A4404EB080A00F00D
:103DA000608102F580520F3222F47F6222F00F020E
:103DB00011463046019200F04BFCB0F1FF3F8346C4
:103DC000019A00F05881824500F2FC80454B196849
:103DD000DA451144196000F05381D9F80000DFF88A
:103DE00010E101301BBFCAEB0B0A5144CEF800B002
:103DF00019601BF0070100F01781C1F10800C1F53F
:103E00008051834408315A44C2F30B02C2EB0109CA
:103E100049463046019300F01BFC431C019B00F017
:103E20003F81CBEB00024A4442F001021968C7F817
:103E300008B04944BC42CBF804201960DFF8A490D4
:103E400016D0B8F10F0F40F2FD806268A8F10C03A4
:103E500023F00703E01802F001024FF0050E1A43A9
:103E60000F2B6260C0F804E0C0F808E000F21C818B
:103E70001D4BBC681A68914288BF19601B4B1A68B9
:103E80009142626888BF196022F003029542A2EB5A
:103E9000050301D80F2B04DC304600F0DFF90024C5
:103EA00038E7621943F0010345F0010565603046CB
:103EB000BA60536000F0D2F90834204603B0BDE880
:103EC000F08F142B71D9542B00F2A480280B00F131
:103ED0006F0E4FEA4E036E3076E600BF5C0CFF1F9C
:103EE0004816FF1F4C16FF1F4416FF1F4016FF1FEA
:103EF0006810FF1F5A0A042A5ED9142A00F2B38000
:103F000002F15C0149005B3207EB810C57F821108C
:103F1000DFF8DC81ACF1080C8C4500F088804A6841
:103F200022F00302934202D289688C45F7D1D1F87E
:103F30000CC07A68C4F80CC0A160CCF80840CC6012
:103F400088E6631942F0010745F0010565603046D7
:103F50004B610B61C3F80CE0C3F808E05F609A5056
:103F6000083400F07BF9D5E64A6873E608F10108E9
:103F700018F0030F0CF1080C7FF47FAE30E0DC6822
:103F8000A34208BF02303FF435AEB3E60B440C4603
:103F90005A68C96854F8085F42F001025A60304616
:103FA000E9608D6000F05AF9B4E603F15C0E03F1AC
:103FB0005B004FEA4E0307E69A0902F13901490016
:103FC0003832A1E7BC424A4B3FF400AF9C686268BC
:103FD00022F003025AE759F80839994540F08280E7
:103FE00010F0030F00F1FF30F5D17B6823EA0403E2
:103FF0007B6064009C423FF6BDAE002C3FF4BAAE3D
:104000001C4240467FF435AE64001C4200F10400BF
:10401000FAD02EE6B3F5AA7F18D8E80B00F1780E97
:104020004FEA4E037730CFE54FF48051EBE60121A4
:10403000D8F80430921001FA02F21A43C8F80420AA
:10404000614677E70123CBF8043025E740F254526C
:10405000934220D8A80C00F17D0E4FEA4E037C302D
:10406000B2E51032A4E6542A26D81A0B02F16F01E9
:1040700049006E3248E7BC68626822F0030205E737
:10408000CAF30B0000287FF4A8AE4244BB6842F09C
:1040900001025A60ECE6FE234FF07F0E7E2093E58E
:1040A00001224FF00009C1E604F10801304600F09A
:1040B000B9FED9F80010DBE6B2F5AA7F05D8DA0B15
:1040C00002F17801490077321EE740F254518A42EA
:1040D00005D89A0C02F17D0149007C3214E7FE21DB
:1040E0007E2211E77B6884E7E808431C5B00F8E563
:1040F0005C0CFF1F8842F0B50DD98B1898420AD28C
:104100008118002A51D09A1A13F8014D01F8014D77
:104110009342F9D1F0BD0F2A48D941EA00039B0729
:1041200046D100F1100401F11003154653F8106C4C
:1041300044F8106C53F80C6C44F80C6C53F8086C91
:1041400044F8086C103D53F8046C44F8046C0F2DCF
:1041500003F1100304F11004E8D8A2F1100323F0D6
:104160000F0302F00F0E1033BEF1030F1944034486
:1041700021D91E1F0D467446043C55F8047B46F8B1
:10418000047F032CF8D8AEF1040424F003040434B3
:104190002344214402F0030262B1013B0A4411F8B6
:1041A000014B03F8014F8A42F9D1F0BD0346F3E712
:1041B0000346F2E7F0BD7246EEE700BF70B4840735
:1041C00046D0541E002A41D0CDB2034602E0621E02
:1041D000E4B3144603F8015B9A07F8D1032C2ED9F7
:1041E000CDB245EA05250F2C45EA054519D903F15D
:1041F00010022646103E0F2E42F8105C42F80C5C6E
:1042000042F8085C42F8045C02F11002F2D8A4F112
:10421000100222F00F0204F00F041032032C13449A
:104220000DD91E462246043A032A46F8045BFAD802
:10423000221F22F003020432134404F003042CB1C1
:10424000C9B21C4403F8011BA342FBD170BC7047E8
:1042500014460346C2E700BF704700BF704700BF67
:10426000024B0A460146186800F002B8580CFF1FBE
:104270002DE9F04F174683B0002900F0C1800E46AB
:10428000814607F10B05FFF7E7FF56F804EC162D02
:104290002EF00304A6F1080840D810221546AF42BC
:1042A00041D8944275DAC94B996808EB04008842FA
:1042B000416800F0D98021F0010303445B68DB070B
:1042C0007DD51EF0010F35D039464846FFF75AFC20
:1042D0000746E0B156F8043C23F001034344A0F143
:1042E00008029A4200F04481221F242A00F2318100
:1042F000132A00F20481034632461168196051689E
:10430000596092689A603146484600F08BFD4846F5
:10431000FFF7A4FF384603B0BDE8F08F25F007058E
:10432000002D2A46BBDA0C230020C9F8003003B068
:10433000BDE8F08F56F8083CC3EB080ADAF8043001
:1043400023F0030C04EB0C039342BDDB5746DAF871
:104350000C1057F8080F221F242AC160886000F251
:104360001781132A40F212813168CAF80810716867
:10437000CAF80C101B2A00F22B8108360AF1100231
:104380003168116071685160B16891603E461C46A9
:10439000D046631B0F2B1DD8D8F8043003F001035F
:1043A00023434444C8F80430636843F00103636066
:1043B0004846FFF753FF304603B0BDE8F08F21F0C9
:1043C00003012144914221DBC36882680C46D3601B
:1043D0009A60DEE7D8F8042008EB050102F001023C
:1043E000154343F001020B44C8F804504A605A6870
:1043F00042F0010208315A60484600F013FDD7E749
:10440000114603B0BDE8F04FFFF7BCBB1EF0010F33
:104410007FF45AAF56F8083CC3EB080ADAF80430C8
:1044200023F0030C01EB0C0E96458BDBC36882680E
:104430005746D3609A6057F8081FDAF80C30CB6003
:10444000221F242A996000F29980132A62D93368C6
:10445000CAF808307368CAF80C301B2A00F2A08032
:1044600008360AF1100356E021F0030BA34405F1CE
:104470001000834559DA1EF0010F7FF425AF56F87E
:10448000081CC1EB080ADAF8041021F0030CE3441D
:1044900058453FF757AF5746DAF80C1057F8080F52
:1044A000221F242AC160886000F2B480132A40F2DF
:1044B000A5803168CAF808107168CAF80C101B2A68
:1044C00000F2AF8008360AF110023168116071689D
:1044D0005160B16891600AEB0501C5EB0B0242F037
:1044E000010299604A60DAF8043003F001031D43C9
:1044F0004846CAF80450FFF7B1FE38465CE7336817
:104500000360736843601B2A27D800F1080306F193
:104510000802F2E63B4632681A6072685A60B26876
:104520009A603E467446D04633E708EB0501C5EB7A
:104530000B0B4BF0010299604A6056F8043C03F003
:1045400001031D43484646F8045CFFF787FE3046EA
:1045500032E73146FFF7CEFDD5E6B3688360F368F6
:10456000C360242A28D000F1100306F11002C4E62B
:1045700050F8043C23F003031C440AE73146384654
:104580007446D046FFF7B6FD3E4602E73A46F7E6E8
:10459000314638461C46D046FFF7ACFD3E46F8E6AD
:1045A000B368CAF81030F368CAF81430242A1BD054
:1045B00010360AF11803AEE733690361736943618A
:1045C00006F1180200F1180397E600BF5C0CFF1F0C
:1045D000B168CAF81010F168CAF81410242A0FD074
:1045E00010360AF11802CBE63369CAF8183073693D
:1045F000CAF81C3018360AF120038CE73A4664E703
:104600003269CAF818207269CAF81C2018360AF1F3
:104610002002B5E6314638460193FFF76BFD019B5A
:1046200059E7B168CAF81010F168CAF81410242AC2
:1046300003D010360AF1180247E73269CAF8182089
:104640007269CAF81C2018360AF120023DE700BF43
:1046500038B5074C0023054608462360FDF7D0FD1A
:10466000431C00D038BD2368002BFBD02B6038BD25
:104670008816FF1FFFFFFFFFFFFFFFFFFFFFFFFF8A
:10468000A2EB0300704700BF02780B78012A28BF15
:104690009A42F5D16DE9044540EA0104CDE902678B
:1046A0006FF0000C4FEA447212B380EA010414F078
:1046B000070F6AD100F0070420F0070004F003059B
:1046C00021F007014FEAC505F0E8042314F0040FB8
:1046D000F1E804670CFA05F462EA040266EA0406EB
:1046E0000AD063EA0403624667EA0407664603E009
:1046F000F0E80423F1E8046782FA4CF582EA060444
:10470000A4FA8CF46CBB83FA4CF583EA0705A5FA8E
:104710008CF595B950E9022351E9026782FA4CF50C
:1047200082EA0604A4FA8CF483FA4CF583EA0705BE
:10473000A5FA8CF52543DBD09CB92DBAB5FA85F4E2
:1047400024F0070427FA04F1DDE9026723FA04F3F1
:1047500003F0FF0001F0FF01FDE80445A0EB0100BC
:10476000704724BAB4FA84F424F0070426FA04F15A
:10477000DDE9026722FA04F202F0FF0001F0FF0116
:10478000FDE80445A0EB0100704714F0030F3CD195
:1047900010F0030428D150F8082B51F8083B82FA96
:1047A0004CF582EA0305A5FA8CF55DB950F8042CA6
:1047B00051F8043C82FA4CF582EA0305A5FA8CF51F
:1047C000002DE8D02DBAB5FA85F424F0070423FAB9
:1047D00004F122FA04F202F0FF0001F0FF01FDE80B
:1047E0000445A0EB010070474FEAC40420F0030029
:1047F00050F8082B21F0030151F8083B0CFA04F49F
:1048000062EA040263EA0403C9E710F003041AD061
:10481000A1EB040120F00300E40750F8042B06D0BC
:104820000FD28B785FFAA2F4E41A06D12BB1CB78C1
:104830005FFAB2F4E41A00D11BB920465DF8104BC0
:10484000704701F1040150F8042BCC0721F003015B
:1048500051F8043B48D824D222F07F4482FA4CF528
:1048600094EA1325A5FA8CF50AD165B951F8043BF1
:1048700084EA0204B4EB036F0ED150F8042BEBE78B
:104880004FEA132355E035F07F454DD10878FDE818
:104890000445C0F1000070474FEA126203F0FF03C5
:1048A00047E002EA1C4482FA4CF594EA1345A5FA63
:1048B0008CF50AD165B951F8043B84EA0204B4EBE3
:1048C000034F0CD150F8042BEBE74FEA134330E0D1
:1048D00015EA1C4528D10B884FEA124229E04FEA1D
:1048E000124203EA1C4324E002F0FF0482FA4CF572
:1048F00094EA1365A5FA8CF50AD165B951F8043B21
:1049000084EA0204B4EB032F09D150F8042BEBE73F
:104910004FEA13630DE015F0FF0F05D10B684FEA66
:10492000122223F07F4304E04FF00000FDE804452D
:10493000704712BA1BBA82FA4CF482EA0304A4FA52
:104940008CF5B5FA85F402FA04F203FA04F34FEA9F
:104950001260FDE80445A0EB1360704780EA010295
:10496000844612F0030F4FD111F0030F32D14DF8EE
:10497000044D11F0040F51F8043B0BD0A3F10132A8
:104980009A4312F0803F04BF4CF8043B51F8043BBB
:1049900016D100BF51F8044BA3F101329A4312F033
:1049A000803FA4F101320BD14CF8043BA24312F03A
:1049B000803F04BF51F8043B4CF8044BEAD0234637
:1049C0000CF8013B13F0FF0F4FEA3323F8D15DF8E9
:1049D000044B704711F0010F06D011F8012B0CF8B1
:1049E000012B002A08BF704711F0020FBFD031F829
:1049F000022B12F0FF0F16BF2CF8022B8CF80020B0
:104A000012F47F4FB3D1704711F8012B0CF8012B32
:104A1000002AF9D1704700BFFFFFFFFFFFFFFFFF34
:104A2000FFFFFFFFFFFFFFFFFFFFFFFFFFFFFFFF96
:104A3000FFFFFFFFFFFFFFFFFFFFFFFFFFFFFFFF86
:104A400090F800F06DE9024520F007016FF0000CCE
:104A500010F0070491F820F040F049804FF0000476
:104A60006FF00700D1E9002391F840F000F1080051
:104A700082FA4CF2A4FA8CF283FA4CF3A2FA8CF389
:104A80004BBBD1E9022382FA4CF200F10800A4FAF0
:104A90008CF283FA4CF3A2FA8CF3E3B9D1E9042344
:104AA00082FA4CF200F10800A4FA8CF283FA4CF37B
:104AB000A2FA8CF37BB9D1E9062301F1200182FA35
:104AC0004CF200F10800A4FA8CF283FA4CF3A2FA3B
:104AD0008CF3002BC6D0002A04BF04301A4612BA49
:104AE000B2FA82F2FDE8024500EBD2007047D1E94C
:104AF000002304F00305C4F100004FEAC50514F0DB
:104B0000040F91F840F00CFA05F562EA05021CBFAB
:104B100063EA050362464FF00004A9E7F0B5DFF849
:104B200078E0164604460F46BEE80F008BB06D468F
:104B30000FC5BEE80F000FC59EE80300B31E45F881
:104B4000040B222B297022D87D1E2846002200E06B
:104B50001A46B4FBF6F10AAB06FB114423440C469B
:104B600013F8283C00F8013F531C0029F0D1F954F8
:104B7000BB184AB1197815F8010F29700134111BBF
:104B80008C4203F80109F5DB38460BB0F0BD00207C
:104B900038700BB0F0BD00BF48A200002DE9F0470F
:104BA000254C2568D5F848410646884692469946E0
:104BB000C4B360681F2817DC431C76B104EB800582
:104BC0000122C5F888A0D4F8881182401143022E32
:104BD000C4F88811C5F808911ED00230636044F80B
:104BE00020800020BDE8F087144B03B34FF4C87059
:104BF000FEF7B8FF0446D0B1D5F84831002780E869
:104C00008800C5F8484138460123C4F88871C4F8C3
:104C10008C71002EE1D0D1E7D4F88C110A43C4F88E
:104C20008C21DAE705F5A674C5F84841C1E74FF0D5
:104C3000FF30BDE8F08700BF44A20000653B0000E4
:104C4000024B13B1024800F005B8704700000000A5
:104C5000614D0000002301461A461846FFF79EBF2B
:104C60002DE9F0432DED028BB0EE408AF0EE608A24
:104C7000384D85B02F6804460E4690461D46002BE1
:104C80004DD00022344B51EC180B02F0CDF878BB1C
:104C9000B0EE480AF0EE680A03AB0193CDF800804D
:104CA000384633462246032100F07AFD039B3168E3
:104CB0009842C1F1000139D2491B2B4610F8012B53
:104CC00003F8012B039A824203EB0106F6D8B442A3
:104CD0002FDDA21B1A44302103F8011B9A42FBD19D
:104CE00000231370284605B0BDEC028BBDE8F083AD
:104CF00000221A4B51EC180B02F0B4F80028C7D070
:104D0000B0EE480AF0EE680A03AB0193CDF80080DC
:104D1000384633462246022100F042FDC6E73A6D8E
:104D200000F123039A4206DD7D6DAAE70E462B466D
:104D3000CDE71A46D4E700F124094A46796D384692
:104D4000FFF796FA05460028CCD0C7F85090786552
:104D500097E700BF580CFF1F0000F03F0000F0BFB6
:104D600038B5074D074C2C1BA41005D0013C55F855
:104D7000043D9847002CF9D1BDE8384005F00ABB46
:104D80000000000000000000F8B5234F0C46064666
:104D9000FFF762FABB685D6825F00305291B01F681
:104DA000EF7121F47F6121F00F01A1F58054B4F57A
:104DB000805F07DB00213046FFF74AFCBB682B44CD
:104DC000984204D03046FFF749FA0020F8BD61420E
:104DD0003046FFF73DFC01300DD0104BBA68196822
:104DE0002D1B45F001053046091B55601960FFF782
:104DF00035FA0120F8BD00213046FFF729FCBA68DA
:104E0000831A0F2BDEDD064C0449246843F00103AE
:104E1000001B53600860D5E75C0CFF1F4C16FF1F9A
:104E20006810FF1F002945D02DE9F0410D4680464E
:104E3000FFF712FA55F8047C6A4927F00103A5F13F
:104E40000804E2188E685068B24220F0030062D075
:104E5000FE0750600BD455F8087CE41B01F1080EE6
:104E6000A56875453B446FD0E768EF60BD601518D5
:104E70006D68ED0742D543F001026260E350B3F57F
:104E8000007F18D2DB085A1C4D6851F83270A760B9
:104E900001209B1000FA03F301EBC2001D43083808
:104EA000E0604D6041F83240FC604046BDE8F041B2
:104EB000FFF7D4B970475A0A042A53D89A0902F165
:104EC00039077F0002F1380501EB870051F82720F0
:104ED0004449083890424DD0516821F003018B427B
:104EE00002D292689042F7D1D068E060A2608460FC
:104EF000D4604046BDE8F041FFF7B0B995683A4F3D
:104F0000BD4203443FD0D068E86043F001028560B1
:104F10006260E350B3E7FF07034407D455F8082C59
:104F2000A41A1344A068E268C26090602F4A126815
:104F300043F00100934260608C60B6D32C4B404636
:104F40001968FFF721FFB0E711184968C90744D471
:104F50009168D268CA60034443F0010091606060C8
:104F6000E350A2E7142A17D802F15C077F0002F190
:104F70005B05A9E7AA104B68012505FA02F2134365
:104F80004B600246B1E743F001024C610C61E56001
:104F9000A5606260E35088E7542A06D81A0B02F134
:104FA0006F077F0002F16E058EE7B2F5AA7F06D883
:104FB000DA0B02F178077F0002F1770584E740F20F
:104FC0005450824206D89A0C02F17D077F0002F10C
:104FD0007C0579E7FE277E2576E743F001026260D3
:104FE000E35062E75C0CFF1F640CFF1F6410FF1F9F
:104FF0004816FF1FC36C70B505460C464BB153F8FD
:10500000240080B1026843F8242000230361C360B8
:1050100070BD2122042100F0FFFAE8640346002855
:10502000EDD1002070BD012101FA04F6721D284661
:10503000920000F0F1FA0028F3D044608660E4E7C3
:1050400031B1C36C4A6853F82200086043F822105B
:10505000704700BFF0B50C6983B00D46064601F1FC
:10506000140E0027DEF8000081B202FB01310B0CA8
:10507000000C02FB003389B2013701EB0341BC4253
:105080004EF8041B4FEA1343ECDC3BB1AA68944290
:1050900007DA05EB8402013453612C61284603B022
:1050A000F0BD6968019301313046FFF7A3FF2A691B
:1050B000023205F10C01074692000C30FCF79CFF10
:1050C000F26C6968019B52F82100286042F8215077
:1050D0003D46DEE7030C1B04B3B90004102310F0B7
:1050E0007F4F04BF0002083310F0704F04BF00016F
:1050F000043310F0404F04BF80000233002807DB68
:10510000420003D4202070470023E8E7581C704772
:1051100018467047036813F0070207D0D90720D458
:105120009A0720D49B0803600220704799B209B9FE
:105130001B0C102213F0FF0F04BF1B0A08321907C3
:1051400004BF1B090432990704BF9B080232D90728
:1051500004D45B0801D1202070470132036010465F
:105160007047002070475B0803600120704700BF54
:1051700010B50C460121FFF73DFF01224461026199
:1051800010BD00BF2DE9F04F0D691769BD4283B016
:105190000C46164604DA2A4634463D460E46174665
:1051A000A368616805EB07089845C8BF0131FFF7A0
:1051B00021FF00F1140C0CEB8809CC45009005D2BE
:1051C0006346002143F8041B9945FBD806F11402FD
:1051D00002EB870A04F11403524503EB850E54D207
:1051E000CDF80490994652F8043B1FFA83FBBBF1BB
:1051F000000F20D000204F466646054600E01E46C0
:1052000057F8044B3068A1B283B20BFB0131240C78
:10521000000C4B190BFB040000EB134099B2334612
:1052200041EA0041BE454FEA104543F8041BE6D869
:10523000756052F8043C5FEA134B20D0DCF8003074
:10524000674618464D46002100E037462C88000C82
:105250000BFB040001449CB23E4644EA014346F87D
:10526000043B786855F8044B83B2240C0BFB0434E0
:1052700004EB1143AE454FEA1341E6D87B609245FB
:105280000CF1040CAFD8DDF80490B8F1000F0BDD81
:1052900059F8043CA9F104091BB105E059F8043D93
:1052A00013B9B8F10108F9D10098C0F8108003B023
:1052B000BDE8F08F12F003032DE9F04114460746D4
:1052C0002ED10E46A4101CD0BD6C95B3E3074FF051
:1052D000000806D4641014D02868A8B10546E30776
:1052E000F8D52A4631463846FFF74CFFB6B172680A
:1052F000FB6C641053F82210316043F822600646BC
:10530000EAD13046BDE8F0812A4629463846FFF703
:1053100039FF2860C0F800800546E0E70646D9E777
:105320005A1E0B4D002355F82220FFF793FE064628
:10533000C8E701213846FFF75DFE40F271210122E6
:105340000023416102610546B8640360BEE700BF07
:1053500060A300002DE9F04791460A698B684FEA87
:10536000691404EB020808F101059D420E468246CD
:10537000496804DD5B009D4201F10101FADC504601
:10538000FFF738FE002C00F1140238DD02EB840335
:10539000002142F8041B9342FBD1346906F1140149
:1053A00019F01F0901EB840E21D0C9F1200200245D
:1053B0000F6807FA09FC4CEA04049C4643F8044BC6
:1053C00051F8044B8E4524FA02F4F1D8CCF804408D
:1053D0000CB108F10205DAF84C307268013D53F85F
:1053E00022100561316043F82260BDE8F087043B7C
:1053F00051F8042B43F8042F8E45F9D8EBE71346F8
:10540000CBE700BF02690B69D21A13D19B0014309D
:105410001431194410B4034401E098420CD253F8FB
:10542000044D51F8042D9442F7D009D301205DF8C2
:10543000044B70471046704700205DF8044B7047DE
:105440004FF0FF30F3E700BF2DE9F8430B690F463B
:1054500011695B1A002B904617D1890007F11402DD
:1054600008F114055318294401E09A425ED253F81A
:10547000046D51F8044DA642F7D060D23B46144665
:1054800047464FF00109984606E05DDB07F1140539
:1054900002F114044FF000097968FFF7ABFDD8F86A
:1054A00010303E69C0F80C9004EB830CA64605EB67
:1054B000860700F1140400235EF8041B55F8048BE2
:1054C0008AB213FA88F3090C9A1AC1EB184303EB5A
:1054D000224392B242EA0342F44544F8042B4FEAD5
:1054E0002343E9D8AF4217D9A446294651F804EB23
:1054F00013FA8EF2131403EB1E4392B242EA0342F4
:105500008F424CF8042B4FEA2343EFD8ED433D4440
:1055100025F0030504352C44043C22B954F8043D1D
:10552000013E002BFAD00661BDE8F8830021FFF7A9
:1055300061FD0122002302614361BDE8F8832C462E
:105540004FF000091546A7E73B4607F1140408F1A0
:10555000140547464FF0010998469DE72DE9F043B1
:1055600057EC106B83B0884601213C46C7F30A55BF
:105570001746FFF73FFDC4F3130481460DB144F411
:10558000801401941EB302A840F8086DFFF7C2FD15
:10559000002834D19DE80C00C9F81420002B0CBF62
:1055A00001210221C9F81830C9F81010DDB909EB42
:1055B0008103A0F23240C8F800001869FFF78AFDA5
:1055C000C0EB41103860484603B0BDE8F08301A845
:1055D000FFF7A0FD019BC9F8143001212030C9F864
:1055E0001010002DE3D0A5F233450544C0F135007D
:1055F000C8F800503860484603B0BDE8F0839DE825
:105600000C00C0F1200103FA01F10A43C3400193E9
:10561000C9F81420C2E700BF10B502FB01F1FEF784
:10562000B1FA0446D8B150F8042C22F00302043A2F
:10563000242A18D8132A14D900231B2A0360436094
:1056400016D9242A8360C36011BF00F110020361E0
:10565000436100F1180200231360536093602046F9
:1056600010BD0246F7E70021FEF7A8FD204610BD59
:1056700000F10802EFE700BF02690B69934200F3F3
:105680008D802DE9F04F03F1FF3801F1140700F18F
:10569000140B57F828205BF828304FEA880483B0B1
:1056A0000132B3FBF2F90BEB0403009407EB040A9D
:1056B0000193B9F1000F39D00025BC46DE462B46D8
:1056C0005CF8046BDEF80020B4B209FB0455360C1C
:1056D0002C0C09FB0644ADB25B1BA6B213FA82F395
:1056E000C6EB124606EB23469BB243EA0643E2456D
:1056F0004EF8043B4FEA14454FEA2643E0D2009BA4
:105700005BF8033093B9019C231F9B450CD254F8DE
:10571000043C4BB9A4F1080302E01A68043B1AB92F
:105720009B4508F1FF38F8D3C0F810800446FFF716
:1057300069FE00282EDB09F101095D46002357F8B8
:10574000041B28688AB29A1A090C12FA80F2C1EB7B
:10575000104303EB224391B241EA0341BA4545F8B5
:10576000041B4FEA2343EAD25BF828200BEB8803A3
:1057700082B91A1F93450BD253F8042C42B9083B47
:1057800002E01A68043B1AB99B4508F1FF38F8D3C8
:10579000C4F81080484603B0BDE8F08F0020704781
:1057A0002DE9F04F57EC106B9BB0046C249D0091D9
:1057B00081460592039310EE10AABB4654B1426C89
:1057C000626001239340A3602146FFF739FC002368
:1057D000C9F84030BBF1000F5C4634DB00232B607E
:1057E000A14B1A462340934216D000220023504674
:1057F000594601F00FFB56465F46804648B3039A70
:1058000001231360259B002B00F0BE809748186091
:1058100001381BB0BDE8F08F039A42F20F7313609A
:10582000BAF1000F00F09A809148259B002BF0D030
:10583000C378002B00F0AA8000F10803259A1360BA
:105840001BB0BDE8F08F01232BF000442B60A34672
:10585000C6E718AA19A947EC106B4846FFF77EFE69
:10586000250D0A9040F08380189D199E2E4406F263
:105870003243202B40F38882C3F1400306F21240EA
:105880009C402AFA00F0204300F0E6FF0123741E3A
:10589000A1F1F8710F930022764B00F09FFE6CA3EC
:1058A000D3E9002301F04EF86BA3D3E9002300F005
:1058B00097FE064620460F4600F0DEFF68A3D3E9B8
:1058C000002301F03FF802460B463046394600F00F
:1058D00087FE06460F4601F0CFFA0022049000230F
:1058E0003046394601F0A0FA002840F02882049E94
:1058F000162E00F22182604B03EBC603D3E90001B0
:1059000052465B4601F0AEFA002800F04282731E58
:10591000049300230D932D1BB5F1010800F12A8299
:1059200000230793049B002BC0F21B8298440C9326
:1059300000230693009B092B2AD8052B40F34486AD
:10594000043B00930026009B023B032B00F22386BE
:10595000DFE813F02B03240236035004444B474A7C
:10596000C4F31300002814BF184610465DE7CBF3BC
:10597000130343F07F51A5F2FF345046CDF83C802D
:1059800041F44011189D86E73D4842E7C31C55E7A6
:105990000021C9F8441048460C460091FFF72AFB45
:1059A0004FF0FF3308930E9301230990C9F840008C
:1059B00005940B93199B002BC0F2D080049A0E2AF9
:1059C00000F3CC802C4B03EBC20393ED007B059BD3
:1059D000002B8DED007BC0F2FE8256465F46DDE96E
:1059E00000AB304652465B46394601F0D5F801F02F
:1059F00043FA044600F040FF52465B4600F0A2FF27
:105A00000B4602463946304600F0E8FD099D04F198
:105A100030032B70089B012B06460F4605F101054C
:105A200061D00022174B00F08DFF002200230646B4
:105A30000F4601F0EFF900287DD1CDF81490DDF884
:105A400020A0DDF824B0DDE9008928E0AFF3008074
:105A500061436F63A787D23FB3C8608B288AC63F74
:105A6000FB799F501344D33F0000F07FE59F000077
:105A700078A300000000F83F70A200006CA30000B3
:105A8000E49F00000000244000F05CFF002200239F
:105A900006460F4601F0BEF9002840F0AE834246AC
:105AA0004B463046394601F077F801F0E5F90446F7
:105AB00000F0E2FE42464B4600F044FF02460B4631
:105AC0003046394600F08AFD04F1300E05F801EB4E
:105AD000CBEB050ED64506460F464FF00002AE4B07
