:1000000000000320D1010000011B0000B91A00000C
:10001000B91A0000B91A0000B91A0000B91A000094
:10002000B91A0000B91A0000B91A0000011B00003B
:10003000011B0000B91A000035120000391200003F
:10004000011B0000011B0000011B0000011B000040
:10005000011B0000011B0000011B0000011B000030
:10006000011B0000011B0000011B0000011B000020
:10007000011B0000011B0000011B0000011B000010
:10008000011B0000011B0000011B0000011B000000
:10009000011B0000011B0000011B0000011B0000F0
:1000A000011B0000011B0000011B0000011B0000E0
:1000B000011B0000011B0000011B0000011B0000D0
:1000C000011B0000011B0000011B0000011B0000C0
:1000D000011B0000011B0000011B0000011B0000B0
:1000E000011B0000011B0000011B0000011B0000A0
:1000F000011B0000011B0000011B0000011B000090
:10010000011B0000011B0000011B0000011B00007F
:10011000011B000035200000011B0000011B000036
:10012000011B0000011B0000011B0000011B00005F
:10013000011B0000011B0000011B0000011B00004F
:10014000011B0000011B0000011B0000011B00003F
:10015000011B0000011B0000011B0000011B00002F
:10016000011B0000011B0000011B0000011B00001F
:10017000011B0000011B0000011B0000011B00000F
:10018000011B0000011B0000011B0000011B0000FF
:10019000011B0000011B0000011B0000011B0000EF
:1001A000011B0000011B0000011B0000011B0000DF
:1001B000011B0000011B0000011B0000011B0000CF
:1001C000011B0000011B0000011B0000011B0000BF
:1001D0005C4B4CF2205210B51A804DF628121A8052
:1001E00000BF00BF01F090FC574B4FF030621A6027
:1001F000564A9A60564ADA60564B4FF470021A60BB
:10020000554B564A1A60564B1A78110703D51A787F
:1002100042F008021A70534B5349AA221A70534AEB
:10022000534B8B4204D252F8040F43F8040BF8E707
:10023000504B514900228B4202D243F8042BFAE77B
:100240004E494F4A002352F8230041F8230001335E
:10025000742BF8D14B4B4C4A802103F8011B93427D
:10026000FBD14A4B454A1A60494B8A221A70A3F5C2
:10027000805324225A70A0221A709A799207FCD5D2
:100280009A79D406FCD4434A937903F00C03082BE3
:10029000FAD1414B60221A7002331A78802AFCD1BD
:1002A0003C4B01221A715D225A719A799006FCD555
:1002B0009979384A4906FBD5384B394919600021EC
:1002C000596020231370937903F00C030C2BFAD19F
:1002D000344B354A1A60354A354C136813F4807331
:1002E00003D123604FF4A8531360324B324A1A6093
:1002F00000225A60072243F8042C304AC3F80C2D20
:1003000062B601F05BFD2368DA0705D52C4801F0E1
:10031000D5FC2C4B2C4A1A602C4B1B785B0609D55C
:10032000284C294B22689A4204D1254801F0C6FC8A
:100330000023236001F0EEFB02F05CFC01F0E0FA28
:10034000FEE700BF0E20054030800440823F0400DD
:100350000100002B88ED00E0002008E0030000858C
:1003600002D0074000E00740AC10FF1FA47300005C
:100370003007FF1FAC10FF1FA016FF1F0002FF1F5A
:100380000000000000E400E064E400E008ED00E0AC
:10039000005006400040064001E007404480044011
:1003A0000000060204800440C010070010D0034083
:1003B00014D0034014E000E01FBF02000000202022
:1003C00092C7E0621CE00340A5C3945A00F00740C6
:1003D000FFFFFFFFFFFFFFFFFFFFFFFFFFFFFFFF2D
:1003E000FFFFFFFFFFFFFFFFFFFFFFFFFFFFFFFF1D
:1003F000FFFFFFFFFFFFFFFFFFFFFFFFFFFFFFFF0D
:10040000FFFFFFFFFFFFFFFFFFFFFFFFDEF9FFFF23
:1004100010B5054C237833B9044B13B10448AFF33E
:1004200000800123237010BDAC10FF1F00000000EE
:10043000A0730000084B10B51BB108490848AFF382
:1004400000800848036803B910BD074B002BFBD0A0
:10045000BDE81040184700BF00000000B010FF1FAB
:10046000A0730000AC10FF1F0000000008B527209B
:1004700001F03EFC58B90D490B7843B90C4A13689A
:10048000042B0ED00133136001230B7008BD27200D
:1004900001F02EFC012800D008BD044B00221A7088
:1004A00008BD0123136001230B7008BDFC14FF1F5E
:1004B0003407FF1F38B505460C460420012101F022
:1004C00011FC0121072001F00DFC0021062001F0A4
:1004D00009FC0C4B1B684FF00042DA625D63DA6A7C
:1004E000002AFCDA4FF00042996BDA625C63DA6A48
:1004F000002AFCDA9B6B01210620BDE8384001F0A0
:10050000F1BB00BF3807FF1F30B5002185B02720A1
:1005100001F0FCFB0121062001F0F8FB012107207E
:1005200001F0F4FB1B4C1C4D0121042001F0EEFBFB
:100530000021042001F0D6FB20461B2100F0B8FB6F
:100540000B21204600F012FB082001F0E9F82020E2
:1005500001F01AF9022001F0BDF8022003220B235A
:1005600021460290019200931B220C230B4800F0BD
:10057000F9FB204600F090FA2846202100F098FB75
:100580002846074900F0C6FA284605B0BDE83040C5
:1005900000F082BA3807FF1F7807FF1FE414FF1F1F
:1005A000000002B870B5684E684C694D8CB00DE023
:1005B0006849694800F042FF002800F08A802B78E3
:1005C000002B40F0A2800A2001F0A6FBFFF74EFFAF
:1005D000624904A800F078FE0A223168684600F0FB
:1005E000A5FE694604A800F00BFF014608A800F02C
:1005F0007FFE08A95A4800F0C3FE08A800F024FEB8
:10060000684600F021FE04A800F01EFE232001F041
:10061000F9F85449208004A800F056FE0A222188E7
:10062000684600F083FE694604A800F0E9FE014632
:1006300008A800F05DFE08A9474800F0A1FE08A840
:1006400000F002FE684600F0FFFD04A800F0FCFD8B
:100650002178C943C9B20020FFF72CFF2178C94394
:10066000C9B20120FFF726FF2178C943C9B2022091
:10067000FFF720FF2178C943C9B20320FFF71AFF13
:100680003949374800F0DAFE002891D1364908A8E8
:1006900000F02EFE08231A4608A9344800F012FD87
:1006A00008A800F0D1FD2E4908A800F021FE08237B
:1006B0001A4608A92D4800F09FFC08A800F0C4FDC8
:1006C0000123244924482B7000F0B8FE00287FF451
:1006D00076AF204908A800F00BFE0823102208A9D5
:1006E000224800F0EFFC08A800F0AEFD1A4908A867
:1006F00000F0FEFD0823102208A91C4800F07CFC35
:1007000008A800F0A1FD01232B70184800F004FD9B
:100710000022134908A800F0C3FE08A9124800F0FF
:100720002FFE08A800F090FD00220B4908A800F059
:10073000B7FE08A9074800F023FE08A800F084FDD2
:1007400000232B703FE700BF3407FF1F2015FF1F5A
:10075000E914FF1F0015FF1FEC14FF1F743F00007A
:10076000D414FF1F803F00001015FF1FC810FF1F8B
:100770002DE9F0411E481F4E1F4D204CDFF89080A0
:100780001F4F84B000F0ECFA19211A2218238DE8CB
:100790000E001C481C490B231B2200F08BFB30462B
:1007A000002100F091FD2A462146304602F010FA61
:1007B0004046002100F088FD2A462146404602F0CE
:1007C00007FA124E3846002100F07EFD2A462146E7
:1007D000384602F0FDF93046002100F075FD2A464A
:1007E0002146304604B0BDE8F04102F0F1B900BF47
:1007F000E414FF1FD414FF1F3007FF1F491200002D
:10080000EC14FF1FC810FF1F3807FF1F0015FF1F44
:100810001015FF1F10B4047F4160022CC26003D08A
:100820005DF8044B00F0A4BC83685DF8044B1847E6
:10083000F0B4464B464A986B5C6B017911704549A0
:1008400022790A701A6B00790870002A46D059681C
:10085000C9688A423ED82168CC8B240402F1FF305B
:1008600065D4C0F30E00C883C88B80B2C882996B70
:100870000968C88B000452D4C2F30E00C883C88B29
:10088000002480B212F1FF32C88218BF01221C631B
:10089000596B2E4809680D6800F12C04A54236D02A
:1008A0000068C46814F0804F0C680D6815BF248878
:1008B00024780235013544F000440D604463996B9F
:1008C000254B09791970214912B14A6B12791A70B6
:1008D000F0BC7047521A1A630122D9E7D86B196825
:1008E00005681E4C0A63CC62CC682D681C4E24F04F
:1008F00080440327B542CC6083F82D701FD1037F5D
:100900004260022BC2601ED0F0BC00F031BC016816
:1009100090F82C00CC6840F000404863CFE7CC8BC7
:10092000C2F3080004F47E442043C883A7E7CC8BBD
:10093000C0F3080004F47E442043C88394E72B46A8
:100940001146F0BC18478368F0BC18477807FF1FB2
:100950001F8000401C8000401B80004000000FFFF3
:1009600015080000F0B4464B464A986B5C6B017961
:100970001170454922790A701A6B00790870002AB3
:1009800046D05968C9688A423ED82168CC8B240475
:1009900002F1FF3065D4C0F30E00C883C88B80B26B
:1009A000C882996B0968C88B000452D4C2F30E0048
:1009B000C883C88B002480B212F1FF32C88218BFEE
:1009C00001221C63596B2E4809680D6800F12C0444
:1009D000A54236D00068C46814F0804F0C680D68DA
:1009E00015BF248824780235013544F000440D6099
:1009F0004463996B254B09791970214912B14A6BEF
:100A000012791A70F0BC7047521A1A630122D9E7A2
:100A1000D86B196805681E4C0A63CC62CC682D68D7
:100A20001C4E24F080440327B542CC6083F82D701F
:100A30001FD1037F4260022BC2601ED0F0BC00F0C9
:100A400097BB016890F82C00CC6840F000404863E8
:100A5000CFE7CC8BC2F3080004F47E442043C88364
:100A6000A7E7CC8BC0F3080004F47E442043C8837E
:100A700094E72B461146F0BC18478368F0BC184732
:100A80003807FF1F1F8000401C8000401B80004073
:100A900000000FFF1508000090E80C00F0B41C687F
:100AA00059682568164F174E29432160164D17497E
:100AB0001760D66015611160417A154A5C180C31D7
:100AC00094F82C4053F8215002EBC40149680D60A2
:100AD000017A5C1803EB8101247ECD6902EBC4012D
:100AE00049680D60817A581803EB810390F8400043
:100AF000596C02EBC002F0BC53681960704700BF2C
:100B000001401F00011000380110007800001F8014
:100B1000007100004268036805CA10B404682243EB
:100B20000260D868840100F0E06205D5080900F48D
:100B3000706021F470410143D8681143814209D0AB
:100B40001A68500409D40848186041F08040D96000
:100B500018611A605DF8044B704741F08042D9601B
:100B60005DF8044B1A61704701401F00F0B4254B3B
:100B70004568AB4211D0437A2B4493F82C60B142C4
:100B800009D005F12B02002312F8014F8C421AD034
:100B90000133042BF8D1F0BC70470B292CD0072966
:100BA00009D01C29E7D1184A137823F0030343F036
:100BB00002031370DFE7144A137823F0030343F0B2
:100BC00001031370D7E795E806000968114210D0B9
:100BD0000E4A02EBC60600277468E918276091F8F0
:100BE0002C1002EBC10203F10C01546855F82120CE
:100BF00022604372F0BC7047034A137823F003036A
:100C00001370B8E7244000003A15FF1F0071000080
:100C1000F0B4244B4568AB4210D0037A2B441E7EBF
:100C2000B14209D005F11702002312F8014F8C429E
:100C30001AD00133042BF8D1F0BC70470C292AD00C
:100C4000082909D02729E8D1174A137823F00C0383
:100C500043F008031370E0E7134A137823F00C0302
:100C600043F004031370D8E795E8060009681142C1
:100C70000ED00E4A02EBC606E918746800272760FA
:100C8000097E02EBC10205EB83055268E969116038
:100C90000372F0BC7047044A137823F00C031370FE
:100CA000BBE700BF244000003A15FF1F00710000A1
:100CB000284A43689A4270B415D0827A1A4492F84E
:100CC000402091420DD093F840408C423FD093F8A1
:100CD00041408C421DD093F842408C4208BF022113
:100CE00018D070BC70470D292BD00E2909D01B29B4
:100CF000E3D1194C227822F0300242F02002227017
:100D0000DBE7154C227822F0300242F0100222700C
:100D1000D3E701211D685C682D6825420FD00F4C78
:100D200004EBC202002655685A182E6092F8402043
:100D300004EBC20403EB810362685B6C1360817295
:100D4000CFE7054C227822F030022270B5E700216F
:100D5000E0E700BF244000003A15FF1F00710000CB
:100D6000704700BFF8B504460D469DF818009DF881
:100D70001C709DF82060E3701946A27020712770E6
:100D800028466670FFF744FF21792846FFF7EEFEFC
:100D9000A1782846FFF78CFF2846FFF77DFEEB7A07
:100DA000002B25D072B6EB7AD80706D51B4AEB6824
:100DB00011680B40EB611360EB7A990706D5184A6E
:100DC0002B6911680B402B621360EB7A5A0706D52A
:100DD000144A6B6911680B406B621360EB7A1B0756
:100DE00005D5114AAB6911680B40AB62136062B65E
:100DF0002B680E4AD968914206D00D4D0D480E4918
:100E00001D60DA60186119602078012100F07EFF12
:100E100060780021BDE8F84000F078BF80E100E094
:100E200084E100E088E100E08CE100E00302003AA8
:100E300001403F000302007A00003F8038B50446BD
:100E40000D46C078002100F04DFF2079012100F00F
:100E500049FFA3681A684FF00043D3625563D36A11
:100E6000002BFCDA936BE0780121BDE8384000F0FC
:100E700039BF00BF38B504460D46C078002100F0E8
:100E800031FF2079002100F02DFFA3681A684FF090
:100E90000043D3625563D36A002BFCDA2079936B4D
:100EA000012100F01FFFE0780121BDE8384000F08B
:100EB00019BF00BFF8B504469DF818709DF81C6076
:100EC0009DF820504370816022700846A77011463B
:100ED000E6702571FFF7ECFE6178A068FFF746FE2B
:100EE000A068FFF7D9FDA078012100F00FFFE0789E
:100EF000012100F00BFF2079012100F007FF002104
:100F0000A07800F0EFFE642000F006FF0121A07839
:100F100000F0E8FE642000F0FFFE2046A021FFF76D
:100F2000A9FF2046AE21FFF7A5FF2046C821FFF705
:100F3000A1FF2046A221FFF79DFF20462F21FFF7AA
:100F400099FF20462121FFF795FF20468121FFF7D9
:100F500091FF20462021FFF78DFFAF212046FFF7AC
:100F600089FF04F10B0304F20B21002203F8012F87
:100F70008B42FBD1E078012100F0B4FE2046F8BDA1
:100F80002DE9F04F01EB410183B01F46C3EB011A7D
:100F900006330193A2F108094FF00108154B0AEB43
:100FA000070E9E4414464E46002107F1800C1EF8A1
:100FB000015023460631BB467DB1072C04DDF30802
:100FC0000CEBC31BA6EBC30300EB0B0508FA03F302
:100FD00095F80CB04BEA03032B73302904F101049C
:100FE00006F10106E3D1019B01379F42D6D103B040
:100FF000BDE8F08FB84000002DE9F8430C68894641
:10100000074690461D4694B12646D9F808301E443E
:10101000A6420AD014F8011B2B4642463846FFF779
:10102000AFFFB44205F10605F4D1BDE8F883142101
:10103000484600F011F9D9F80040002CE4D1142101
:10104000484600F009F9D9F80060DEE72DE9F04FD5
:1010500001EB410183B09E46C3EB011B06330193B4
:10106000A2F1080A4FF00109154B0BEB0E0C9C4442
:101070001546574600240EF180081CF804602B46E4
:10108000063471466EB1072D04DDFB0808EBC31171
:10109000A7EBC303014409FA03F30E7B26EA03031B
:1010A0000B73302C05F1010507F10107E5D1019B18
:1010B0000EF1010E9E45D7D103B0BDE8F08F00BF01
:1010C000B84000002DE9F8430C6889460746904671
:1010D0001D4694B12646D9F808301E44A6420AD0CF
:1010E00014F8011B2B4642463846FFF7AFFFB442C7
:1010F00005F10605F4D1BDE8F8831421484600F057
:10110000ABF8D9F80040002CE4D11421484600F097
:10111000A3F8D9F80060DEE7F8B5AE210546FFF781
:10112000A9FE28464021FFF7A5FE05F10C04B027D3
:1011300039462846FFF79EFE10212846FFF79AFE03
:1011400000212846FFF796FE04F1800614F8011BE3
:101150002846FFF773FEA642F8D10137FFB2B42F3D
:101160003446E5D12846AF21BDE8F840FFF782BEFE
:1011700010B4EFF3108272B6437F33B9017F0129B7
:1011800008D0032910D00123437702B962B65DF875
:10119000044B7047114C2168A1B1114943610B68A0
:1011A000836108605861EEE70E4C216881B10E49F9
:1011B00043610B688361086058610C4B4FF08051AC
:1011C0001960E0E7064B4161816120601860DAE751
:1011D000054B4161816120601860EEE73015FF1F0B
:1011E0002C15FF1F2415FF1F2815FF1F04ED00E01D
:1011F00070B5EFF3108272B60C4C206880B10C4EC3
:1012000000254369236073B19D6102B962B64577D9
:1012100083689847EFF3108272B620680028F0D1F7
:1012200002B962B670BD3360EFE700BF2415FF1F3F
:101230002815FF1FFFF7DCBF024A13680133136054
:10124000704700BF3C15FF1F10B50446006801F051
:101250001BFD204610BD00BF38B543688B4201D34B
:10126000012038BD0D4604460131006802F034F813
:101270000028F6D0A36884E82100002BF0D1037089
:10128000EEE700BFF8B50446154632B9036803B16E
:101290001A700023A3602046F8BD0E461146FFF7E2
:1012A000DBFF074648B9206810B101F0EDFC27606C
:1012B00000236360A3602046F8BDA5603146206826
:1012C00002F08CFBE7E700BF38B50023044603605B
:1012D00043608360037341B108460D4602F0F0FBA2
:1012E000294602462046FFF7CDFF204638BD00BF05
:1012F0000023884210B50446036043608360037393
:1013000003D08A680968FFF7BDFF204610BD00BF03
:1013100038B5054608460C4602F0D2FB2146024687
:101320002846BDE83840FFF7ADBF00BF10B5044602
:10133000002386B023606360A3602373084601A97D
:1013400001F098FC01A92046FFF7E2FF204606B015
:1013500010BD00BF814211D038B5054600680C466B
:1013600008B101F091FC23686168A2682B6000233A
:101370006960AA6023606360A36038BD704700BFE6
:10138000884210B5044601D0FFF7E4FF204610BDA7
:101390002DE9F84303680F46BB42044681681546B1
:1013A0000AD85A18974207D2C3EB07094FF0010831
:1013B00035B92046BDE8F8834FF00008002DF8D07D
:1013C0004E1931462046FFF747FF0028F1D0B8F10B
:1013D000000F0ED02368A0682A4603EB09011844C9
:1013E00000F096FA236800229A55A6602046BDE8D0
:1013F000F8832068A3683946184402F0EFFAF4E74E
:1014000010B58A6809680446FFF7C2FF204610BD80
:10141000036853B1096811B1184602F075B98068C4
:1014200010B118787047184670470B68002BFAD037
:1014300088680028F8D018784042704708B582685C
:101440008B689A4201D0002008BDFFF7E1FFB0FA97
:1014500080F0400908BD00BF9A42F8B504460E4628
:1014600002D911461A460B460021A1602173B068CB
:101470002160824261600ED8834228BF03461D4628
:1014800033685F5D59553368991806D02046FFF7D9
:101490003FFF33685F552046F8BDA1605F55FAE70E
:1014A00010B58B680446FFF7D7FF204610BD00BF7C
:1014B000374A384913681B06FCD40B6813F08003C5
:1014C000F8D172B634490A78002A5FD0334A3448DA
:1014D000F0B4344C176806682568D4680C303E4474
:1014E000143200681268304F35442C4420440244C2
:1014F000C2F34E022D4E2E482E4D2F4C42F4004288
:101500003A60376806682D682C4A24680C303E44DF
:10151000006812682A4F35442C4420440244C2F328
:101520004E02284E2848294D294C42F400423A6088
:10153000376806682D68274A24680C303E440068E6
:101540001268254F35442C4420440244C2F34E0215
:10155000224E2348234D244C42F400423A6037681F
:1015600006682D68214A24680C303E4400681268E1
:1015700035442C4420440244C2F34E021C4842F439
:10158000004202600B7062B6F0BC704762B67047F2
:1015900024B0034024B00B403615FF1F38B0034081
:1015A0003CB0034040B003402CB0034058B003406F
:1015B0005CB0034060B0034064B003406CB00340D3
:1015C00030B0034038B00B403CB00B4040B00B4053
:1015D00044B00B404CB00B402CB00B4058B00B400B
:1015E0005CB00B4060B00B4064B00B406CB00B4083
:1015F00030B00B4030B42948294A2A4B2A4D602488
:10160000E121047011701B78284C082B30D00A2B74
:101610002748284937D00C2B0CBF35225D221223D6
:101620002A60236002600B60234B24491B78244A04
:10163000BBB101230B601360224B23491B78234A63
:10164000012B26D9042B0FD9082B1ED9102B94BFA0
:10165000862387230B6013601D4B01221A7030BC58
:1016600070470B601360E7E784230B601360F3E7B8
:1016700000F58E200F490830212213232A602360B1
:1016800002600B60D0E73922F7E785230B60136017
:10169000E2E780230B601360DEE700BF00400740F5
:1016A00001400740B807FF1F08B003400CB00340DB
:1016B00008B00B400CB00B403915FF1F20B00340A1
:1016C00020B00B40B907FF1F24B0034024B00B40EB
:1016D0003615FF1F68B10E4A1378C3B90D49097852
:1016E0000120107019B10C490C4A0B601360FFF710
:1016F00081BF074B1A7852B1064A18701378002B35
:10170000F5D0054A054B10601860FFF773BF7047AE
:101710003915FF1F3615FF1F24B0034024B00B40BE
:101720000C2830B417D91023984228BF18461C46FD
:10173000104A114D1178181A8C42287018D00F4990
:1017400013700B7823B10E490E4A00230B6013600F
:1017500030BCFFF74FBF0A2802D90C231C46E7E72D
:10176000082802D90A231C46E2E708231C46DFE7C3
:1017700030BC7047B807FF1F3515FF1F3615FF1F18
:1017800024B0034024B00B4010B51A4B1B7804461C
:10179000BBB9012C19D9042C174B18490AD9082CAC
:1017A00020D9102C17D907221A600A60144A202366
:1017B000137010BD04221A6013460A60104A137099
:1017C00010BDFFF775FE012CE5D80B4A002313600E
:1017D0000B4A137010BD06221A600A60084A1023D3
:1017E000137010BD05221A600A60054A08231370A1
:1017F00010BD00BF3615FF1F24B0034024B00B40BE
:10180000B907FF1F47282FD8334B2DE9F0411E5C45
:10181000FF2E2BD0314B1B78002B2AD132062CD433
:1018200072B62F4D2F4C2F46012326602B7062B6C7
:1018300072B623681B060CD43B781BB9F4E72B78EF
:10184000002BF1D062B601F009F972B623681806D0
:10185000F5D5254B1B6800222A7062B6234A107802
:1018600043FA00F0BDE8F081002070470020BDE899
:10187000F081FFF71DFE3206D2D572B61C4DDFF89F
:101880007C801C4C06F04007FFB206F03F06D8F8FB
:101890000030DFB123F01003C8F8003001232660C8
:1018A000134A2B7062B672B6236819060CD41378EB
:1018B0001BB9ECE72B78002BE9D062B601F0CEF82B
:1018C00072B623681B06F5D50B4BC3E743F0100334
:1018D000C8F80030E2E700BFB87000003615FF1FFF
:1018E0003815FF1F00B0034010B003403515FF1F2F
:1018F0003715FF1F00B00B4010B00B400CB00B4071
:1019000008B5FEF701FEFEF74DFE01F0A7F8FAE775
:1019100001B441EA000313F003036FD1403A41D30D
:1019200051F8043B40F8043B51F8043B40F8043BB9
:1019300051F8043B40F8043B51F8043B40F8043BA9
:1019400051F8043B40F8043B51F8043B40F8043B99
:1019500051F8043B40F8043B51F8043B40F8043B89
:1019600051F8043B40F8043B51F8043B40F8043B79
:1019700051F8043B40F8043B51F8043B40F8043B69
:1019800051F8043B40F8043B51F8043B40F8043B59
:1019900051F8043B40F8043B51F8043B40F8043B49
:1019A000403ABDD2303211D351F8043B40F8043BE9
:1019B00051F8043B40F8043B51F8043B40F8043B29
:1019C00051F8043B40F8043B103AEDD20C3205D3F9
:1019D00051F8043B40F8043B043AF9D204320AD0EF
:1019E000D2071CBF11F8013B00F8013B03D30B7871
:1019F00003704B78437001BC704700BF0C2A4AD378
:101A000010F0030311D0C3F10403D21ADB071CBF8B
:101A100011F8013B00F8013B07D311F8013B00F836
:101A2000013B11F8013B00F8013B11F003033FF4C7
:101A300075AF30B4043AC91AC3F1040C51F8044B21
:101A4000022B19D0032B0BD0240A51F8043B1D069E
:101A500044EA050440F8044B1C46043AF4D216E06C
:101A6000240E51F8043B1D0244EA050440F8044BDF
:101A70001C46043AF4D20AE0240C51F8043B1D043D
:101A800044EA050440F8044B1C46043AF4D20432FC
:101A9000B1EB0C0130BC043AA0D3013A11F8013B80
:101AA00000F8013BF9D20B7803704B7843708B78C8
:101AB000837001BC704700BF08B5104C08E0236874
:101AC00059050DD423681A050FD42368DB0411D4FB
:101AD00023685803F3D500F0ADFA23685905F1D512
:101AE00000F00EF823681A05EFD500F009F8236816
:101AF000DB04EDD500F004F8EAE700BF34800440D1
:101B000008B5FFF7D9FF00BF014B10221A807047BC
:101B100000200540704700BF094908B50B6830B187
:101B20006A461844A2F50052904202D20860184654
:101B300008BD01F059F80C2303604FF0FF3008BDD9
:101B4000BC07FF1F084A1378802B01D00020704784
:101B50000649074B07480860002119701378802B4D
:101B6000FCD00120704700BF03E0074044800440E0
:101B700001E0074000002822094A1378012B01D018
:101B80000020704703F1804303F5FC2360211970A6
:101B90001378802BFCD1034B034A1A600120704755
:101BA00003E007404480044000000602F0B44D1EEC
:101BB0002E46002400E00134B0FBF2F302FB1300D8
:101BC000092800F130078ABF3730F8B2C0B206F8F2
:101BD000010F1846002BEED10A1953704CB1107842
:101BE00015F8016F28700133E01A834202F8016989
:101BF000F5DB0846F0BC704710B4114B53F83020A9
:101C000092F8804234B1012379B182F880305DF8D6
:101C1000044B704703EBC0035B681A6851B922F0AC
:101C200002021A605DF8044B704782F800315DF8DB
:101C3000044B704742F003021A605DF8044B704792
:101C4000007100001C4A02EBC00301295B6811D03F
:101C500004291BD052F83000002280F8802229B1DC
:101C6000022920D0032922D01A6070474FF48072D5
:101C70001A60704752F830004FF4A27280F8801258
:101C80001A601A6822F020021A60704752F8301069
:101C90004FF4A272012081F880021A601A6842F0A3
:101CA00020021A60704740F203121A6070474FF426
:101CB00081721A60704700BF0071000030B4054B9C
:101CC000054D064C002210211A602A602060196020
:101CD00030BC704714D0034004D0034000D0034010
:101CE000704700BF3F2801D8FFF786BF704700BF8D
:101CF0003F2806D8044B53F8303093F80002C0B2A6
:101D000070470020704700BF007100003F2801D8D5
:101D1000FFF798BF704700BF2DE9F843054672B63C
:101D2000224F234B234A1B683C68126862B652015B
:101D300002D5322B88BF0134B5B3C3F52F3303F27C
:101D40001F331D4EDFF86890DFF868809B084FF462
:101D50007A72A6FB031302FB04F404EB930472B63D
:101D6000D9F800103A68D8F800E062B6C1F52F3310
:101D700003F21F339B08A6FB03031EF0806FC4EB26
:101D800093034FF47A7002D0322988BF013200FBEE
:101D90000233B3F57A7F04D3013D05D004F57A749C
:101DA000DDE700F05BFEDAE7BDE8F8833C15FF1FD6
:101DB00018E000E004ED00E0176CC116F8B54F4BD9
:101DC0004F48DFF860C14F4C4F49DFF85CE14F4EA0
:101DD0004F4D504F4FF000621A604FF080521A6022
:101DE0004FF000521A604FF080421A604FF00042EC
:101DF0001A600022282302604EF6FF70CCF8000023
:101E0000CEF8003023600EF5012E0B6033602B609E
:101E100006F500263B6005F50025A36207F50027BF
:101E20008B6204F5012401F5012106F6E87605F63A
:101E3000E87507F57F6710310EF1100E203433601E
:101E40002B60CEF800303B600B602360324CBB61EE
:101E50008B6109212160A7F5002704F58054203FFC
:101E600008343A602060BB60E36047F8041C04F566
:101E7000FD2407F5FE27043704F2FC742260386065
:101E8000A360FB6044F8041C083404F6FC74C7F833
:101E9000FC2F2060A4F5E124A4F2DC7433602B60F5
:101EA000C7F8F81F21681D4841F4007121600168DE
:101EB0001B4C0EF57F4E0EF1E80E07F5883706F540
:101EC000803605F5803541F000710160CEF80020C4
:101ED00047F6FF710822396033602B602260FFF7FC
:101EE00089FBFFF7FDFE1420FFF716FF00F0DCFC76
:101EF0004FF48C70BDE8F840FFF70EBF04E100E03E
:101F000004800340148003401C800340248003406D
:101F10002C80034034800340008003400480044050
:101F200000900C40088003400C800340F0B472B66F
:101F30001A491B4E012311F8014B194F9A0024072F
:101F400042F0010505D556F8324064B156F8352007
:101F5000BAB10133052BEED162B6124B00221A70D2
:101F6000F0BC00F023BD0F4C0F4D217807EB43135D
:101F7000083001395860217047F8325062B6F0BC21
:101F80007047084A0949137807EBC5040830013B3C
:101F90006060137047F8351062B6F0E70073000018
:101FA0000000FF1F1516FF1F88004000C8004000FA
:101FB000431E032B1DD81B4A400140F0100030B4D3
:101FC000104472B6184CE25C032A1BD8DFE802F01A
:101FD0000212151703220D88E25410F0080F14BFE7
:101FE000C823882343EA054308314160036062B691
:101FF00030BC704708300222EDE70522EBE70830DD
:102000000422E8E7094A52F8230038B1084A52F896
:102010002300416042F8231062B6E9E742F823103A
:10202000034AF7E70000FF1F2416FF1FEC15FF1FF0
:10203000FC15FF1F2DE9F04FDFF814B3DFF814A3F0
:1020400087B044E0AD4F4FEA930807EBC809013E63
:10205000D9F8042003F00803F6B2A2F1080003F057
:10206000FF04002B40F0038157F838301B0C99B265
:1020700022F8081C002B00F0F180A14B22F8064C3E
:1020800042F8044C53F82620002A00F06C819D4D44
:1020900055F8263058609C4C45F8260034F8163028
:1020A000194424F8161000F061FC002800F0548157
:1020B000964A974B19F0080F00F1080018BF134615
:1020C000C9F8040047F8383008238BF800309BF833
:1020D0000040E4B260071BD58E4B1B78ABB18E4934
:1020E0000A7802F0FF032AB1013BDBB20B70002B30
:1020F00000F0B58389490A7802F0FF032AB1013B59
:10210000DBB20B70002B00F0F68004238BF800305C
:1021100004F0080303F0FF02002B00F0D5809AF8CA
:102120000030DBB21E098DD19C08744F57F8342063
:1021300007EBC401C2F38302013A49680C2A7ED836
:10214000DFE802F081817D7D7D7D7D7D427D7D7D2D
:1021500007000868724B734D01936C4B4A68724ECE
:1021600047F8343081B240F281646D4B6A60286078
:1021700000220120A1423A611A60BA61307000F277
:10218000F680B1F5D06F80F0E882B1F5817F00F084
:10219000D38200F2D881802900F04D81822940F05D
:1021A0009282A988614B01F07F01042900F28C82A0
:1021B0005F4C89000B44227062701A78930740F1DB
:1021C0003883207002203AE1554B01931A6862B3BC
:1021D000584B5949544E18880C7896F800E040281E
:1021E000054684F0010C28BF402544F00204BEF1EE
:1021F000000F81F800C0A0EB050007EBC40C0CBF7A
:102200008821C82180B28EF0010E41EA0541CCF848
:102210000420188086F800E02A4447F8341010B9EA
:10222000402D18BF0022019B1A603E4B1A88B2F560
:10223000A06F04D100219A785970404B1A70404A1F
:102240000123137040E7374A158842F22100854286
:1022500000F052812D4A47F83420F0E72B4A2C4BEE
:1022600019F0080F18BF134647F838302CE700F074
:102270009DFB344A344952F82630002B00F02D8162
:1022800058688C5D42F8260003F10802C9F8042062
:10229000032C05D8DFE804F0120F150204228A553A
:1022A0001A8819F0080F0CBF8823C82343EA024399
:1022B00047F8383008E702228A55F1E703228A55A9
:1022C000EEE705228A55EBE7E00700F17881210669
:1022D00000F1A281A20706D51C4A1D4913780220ED
:1022E000DBB213700870E30602D5194B10221A7086
:1022F00007B0BDE8F08F00F08DFB06E70000FF1F80
:102300009815FF1F4415FF1F8816FF1FC8004000C7
:10231000880040002016FF1FA915FF1F2816FF1F69
:102320004015FF1F0C16FF1FA815FF1FC0200740F8
:102330001816FF1F5415FF1F1416FF1F9820074083
:1023400094200740EC15FF1F2416FF1F882007402C
:102350008020074090200740B74A47F8380013789C
:1023600001331370B0E643F82600B44D93E642F211
:102370002104A14200F0AD8000F20E81B1F5086F9A
:1023800000F05481B1F5106F40F09D81AC4AA978FE
:102390001170AC4D042402E00134142C0CD057F819
:1023A00034301906F8D505EBC403013458680838F1
:1023B00000F0FCFA142CF2D1A349A44BA44A0291D8
:1023C000A449A54C9D4D039405964FF000098846FD
:1023D0001C4616460495206828B1456800F0E6FAC8
:1023E0002846002DF9D100232360049B30681A464B
:1023F000002342F8293028B1456800F0D7FA284672
:10240000002DF9D100223260029A98F8003011466E
:10241000002241F8042B039A0291023B4FF0000185
:1024200022F81910032B00F2B481DFE813F0E20167
:10243000AE01E201AE01894C022022706270EA888E
:10244000824280F00D8286490D78402A45F0020EC6
:10245000944607EBCE0028BF4FF0400C04EB0C0372
:1024600044600293CCEB02004FEA0C484FF00109A4
:102470000022C82444EA080385F0010447F83E30EE
:1024800032700C70DFF8BCE1764BDFF8D4810028A5
:1024900040F02081BCF1400F1BD144F0020407EB57
:1024A000C403029FDFF89CE15F60002A40F02781AF
:1024B000020442F0880286F800900D7007444EF83E
:1024C00034203B46402804D10020674A01991080FF
:1024D0000B60664A01231370B1E68B5D032B00F29B
:1024E000248101A252F823F0C9200000C920000075
:1024F0000D26000013260000928862B95C4ACD1DAB
:1025000011F8013B02F8013F8D42F9D1594A126896
:10251000862A00F0C9805249524E0878327840F03D
:10252000020580F00100087007EBC501002A4FF09A
:102530000000486082F001020CBF8821C82147F8E2
:102540003510327086E640F20232914240F0B0809F
:10255000A98801F07F01042900F2B5806A88002A69
:1025600040F0B180444C89000C448146217841F010
:1025700002012170002002908046844604463849BA
:102580000D7845F0020E07EBCE03B9F1000F5C6049
:102590000CBF8824C8246DE742F22124A14240F0F8
:1025A0008E80A988002940F04281344B344A354C52
:1025B0001B68AD78136081460A462570DAE72B491F
:1025C000204B3148264EDFF8B0C0304DDFF8D4E064
:1025D0002F4F02240C702F4C18605C6098602E48BE
:1025E000D8601A619A610D2332702C4C8CF800303F
:1025F0002B4EFF232B7001209F258EF800303A7060
:1026000033702570087007B0BDE8F08F00238B553C
:102610005AE501238B5557E51749224B80220D209F
:1026200008701A70A2077FF55EAE55E6044A0B4C9F
:102630001278227003E700BF1516FF1F4415FF1F15
:102640002016FF1F0000FF1FFC15FF1F9815FF1F1E
:10265000EC15FF1F2416FF1F8816FF1F1816FF1FFB
:102660001416FF1FA815FF1F5415FF1F94200740C5
:102670008F16FF1F9016FF1FC02007403C15FF1F3D
:102680009816FF1F3416FF1F88004000882007405F
:10269000982007405815FF1FAC15FF1F84200740E6
:1026A0008C20074080200740754A0F21117032E7C7
:1026B000B1F5A06F07D100224FF001095AE742F2AD
:1026C00021329142F7D06F4B0F221A706E4A0123CC
:1026D0001370B4E540287FF6E0AE44F002040EEB40
:1026E000C401029E4E60AAB183F80090674A88F840
:1026F00000503346403840334EF83420E5E6029B24
:1027000086F80090020442F0C8020D7003444EF8AF
:102710003420D7E683F80090029B5D4A88F8005089
:10272000403840334EF83420CFE619F0080F0CBF84
:10273000022303238B55C7E4A98801F07F010429F4
:10274000C1D86A88002ABED14E4C89000C4481460B
:10275000217821F0020121700CE74E4A5468002CC8
:10276000B1D06888B5F804E003E00C325468002C5E
:10277000A9D013888342F8D153887345F5D1000A54
:1027800003280CBF2078108959E64FF0010388F820
:10279000003009F10109B9F1040F04F1040406F154
:1027A000040608F101087FF416AE3B4B059E3B4D35
:1027B000DFF8F080002018704FF0010918F8013B95
:1027C00005F8043B1A0719D44FEA890444F00202C1
:1027D00044F00304002347F8323047F83430304BDC
:1027E0009D4209F10109E9D196F8009089F00102B2
:1027F000C0E64FF0000388F80030CAE700F0B6F8F2
:1028000018B307EB49134FEA890408305860204B8E
:1028100047F8343000F0AAF868B144F0010307EB40
:10282000C30208305060194A47F83320CEE781468A
:10283000A0E6022003E6184B44F001021B7847F89B
:102840003200154A01331370C0E7134B124A1B784C
:102850004FEA8904013347F834001370DAE700BE09
:102860004028844628BF4FF0400C04EB0C03CCEB0F
:1028700000004FEA0C48029300224FF001097EE667
:10288000A915FF1FC020074094200740C800400042
:1028900088004000047300001516FF1FC420074085
:1028A000D420074000730000F8B500F04FF9002372
:1028B00024491A4601EBC30041F833200133142B9D
:1028C00042604FF000041F48F4D11F491F4A0B68B3
:1028D000DFF890C01E4E1F4F1F4DDFF88CE043F411
:1028E00080230B60136843F04073136003238CF85C
:1028F000003001F52831A02333707C3102F5C92264
:10290000C0F307233B701032C0F307430B70000E77
:10291000FF2328708EF80030104D0CF8BC3C104896
:102920001370012306F8AC3C81F8504070264FF438
:102930000014102107F8183C2E70046082F8F8107B
:10294000F8BD00BF0000FF1F3480044000D80040E5
:10295000402107409C200740B420074035E400E0B8
:1029600004E100E0442107408020074072B60D4892
:102970000268B2FA82F30B2B10DC4FF00041D94011
:1029800022EA0102026062B6074803EBC303DB00E0
:10299000C2180021C15010465160704762B6002035
:1029A000704700BFC007FF1FD003FF1F0D4B0E4A2B
:1029B000C31AA2FB03231B090B2B0CD80B4A12785A
:1029C00052B972B60A484FF00041026821FA03F387
:1029D0001A43026062B67047064A1278002AF0D0A5
:1029E000FFF7A4BAD003FF1F398EE3381516FF1F77
:1029F000C007FF1F2016FF1F044B054A1B68908865
:102A00001BB11A885B88D31A184470473016FF1F11
:102A10008816FF1F38B50E4B1B7873B90D4C216813
:102A200061B103F0FF054B880B800420FFF7C0FA6B
:102A3000256038BD084B01221A7038BDFFF796FF9C
:102A40000028F7D00146BDE838400420FFF7B0BAAF
:102A50002916FF1F2C16FF1F2816FF1F2DE9F8430C
:102A6000314E337893B1314F3A787AB90122D90790
:102A70003A7036D49A0719D400225B073A7005D50C
:102A80002B4B1A6812B1EFF305820AB1BDE8F88347
:102A9000EFF3108172B6186818B1264C2278002A1C
:102AA0002ED00029F2D162B6BDE8F883DFF890801D
:102AB00098F80020002ADFD0DFF88890002405E095
:102AC000013498F80030E4B2A34212D959F82450E6
:102AD0002B6828461B6998470028F1D02B69984736
:102AE000EEE7FFF789FFC8B9134B1B781BB93378A2
:102AF000C0E73378C0E7337803F0FE033370B9E7FB
:102B000045691D60012323705DB1AA6101B962B6F8
:102B100000254577836898472570B7E700F014F8DB
:102B2000E2E7064B1D60F1E7C407FF1F3516FF1FE4
:102B30003015FF1F3415FF1FC507FF1F2C15FF1F82
:102B40005016FF1F3816FF1F704700BF10B584B026
:102B500072B6FEF7F7FF184A184B19491160702238
:102B600080211A701A46197013781B06FCD5154B74
:102B70001C68FFF701F862B6134B9C429CBF04EB44
:102B8000840464002046114C01A90A22FFF70EF8C4
:102B900001A92046002311F8012B01333AB10A2B79
:102BA00020F8022FF7D11623237004B010BD5B006C
:102BB000DBB2237004B010BD0400024000000240EC
:102BC000000007410C0002407F9698005408FF1F48
:102BD0000B460146184600F001B800BF13460A46EE
:102BE0000146022001F01AB8014B1868704700BF77
:102BF000980CFF1F70B50F4E0F4D761BB61018BF07
:102C0000002405D0013455F8043B9847A642F9D179
:102C10000A4E0B4D761B04F0B5FBB61018BF00240E
:102C200006D0013455F8043B9847A642F9D170BD4F
:102C300070BD00BF90730000907300009C73000093
:102C400090730000931E222B10D80A2A10B506D0CC
:102C500000230C46194400F0A1FF204610BD0028B7
:102C6000F6DA2D230B7040420123F2E700200870B2
:102C7000704700BFFFF7E6BF024B0146186800F03F
:102C80000BB800BF980CFF1F024B0146186801F0FB
:102C900089B800BF980CFF1F2DE9F04F01F10B051B
:102CA000162D83B0064640F29F8035F0070500F1EF
:102CB000BF80A94200F2BC8000F00AFBB5F5FC7FA2
:102CC000C0F09C826B0A00F0BA80042B00F2838172
:102CD000A80900F1390E4FEA4E033830C44F07EB14
:102CE0008303A3F108015C68A14207D1ACE0002A8C
:102CF00080F2AC80E468A14200F0A680636823F013
:102D000003035A1B0F2AF2DDB9493C6901F1080E91
:102D1000744500F0B381636823F003035A1B0F2A44
:102D200000F39981002AC1F814E0C1F810E080F2A4
:102D30009E80B3F5007F80F06781DB0803F1010C12
:102D400001229B1002FA03F34A6851F83C80C4F850
:102D5000088001EBCC091A43A9F10803E3604A603B
:102D600041F83C40C8F80C40831001249C40944238
:102D700000F28A80144206D120F00300640014425D
:102D800000F10400FAD007EBC009CC468046DCF81D
:102D90000C108C4507D173E1002A80F28181C9684B
:102DA0008C4500F06D814B6823F003035A1B0F2AFA
:102DB000F2DD0C46D1F80CC054F8088F4B1945F0E1
:102DC00001054D6042F00101C8F80CC03046CCF856
:102DD00008807B613B61C3F80CE0C3F808E05960F0
:102DE0009A5000F077FA1FE0102921D800F070FA0D
:102DF0001025062302207E4F07EB8303A3F1080270
:102E00005C68944200F045816368E168A56823F03E
:102E10000303234430465A68E96042F001028D60A2
:102E20005A6000F057FA0834204603B0BDE8F08F2E
:102E300000240C232046336003B0BDE8F08F8023CC
:102E40004FF0400E3F2049E770465DE72344E168BC
:102E50005A68A56842F00102E96030468D605A6008
:102E600000F038FA0834204603B0BDE8F08F234460
:102E700030465A6842F001025A6000F02BFA0834DA
:102E8000204603B0BDE8F08FBC68636823F00308F8
:102E9000A84504D3C5EB08030F2B00F38C80554BDA
:102EA000DFF860911A68D9F8003001332A4404EB46
:102EB000080A00F0608102F580520F3222F47F622E
:102EC00022F00F0211463046019200F0FDFBB0F1F6
:102ED000FF3F8346019A00F05881824500F2FC8052
:102EE000454B1968DA451144196000F05381D9F84F
:102EF0000000DFF810E101301BBFCAEB0B0A5144A0
:102F0000CEF800B019601BF0070100F01781C1F185
:102F10000800C1F58051834408315A44C2F30B02C2
:102F2000C2EB010949463046019300F0CDFB431C3A
:102F3000019B00F03F81CBEB00024A4442F00102CA
:102F40001968C7F808B04944BC42CBF8042019609E
:102F5000DFF8A49016D0B8F10F0F40F2FD80626840
:102F6000A8F10C0323F00703E01802F001024FF070
:102F7000050E1A430F2B6260C0F804E0C0F808E0A9
:102F800000F21C811D4BBC681A68914288BF196011
:102F90001B4B1A689142626888BF196022F00302D5
:102FA0009542A2EB050301D80F2B04DC304600F05C
:102FB00091F9002438E7621943F0010345F0010557
:102FC00065603046BA60536000F084F908342046EA
:102FD00003B0BDE8F08F142B71D9542B00F2A480FC
:102FE000280B00F16F0E4FEA4E036E3076E600BFFD
:102FF0009C0CFF1F5C16FF1F6016FF1F5816FF1F5B
:103000005416FF1FA810FF1F5A0A042A5ED9142A5B
:1030100000F2B38002F15C0149005B3207EB810CE6
:1030200057F82110DFF8DC81ACF1080C8C4500F07A
:1030300088804A6822F00302934202D289688C4554
:10304000F7D1D1F80CC07A68C4F80CC0A160CCF8F4
:103050000840CC6088E6631942F0010745F001059D
:10306000656030464B610B61C3F80CE0C3F808E0C3
:103070005F609A50083400F02DF9D5E64A6873E68F
:1030800008F1010818F0030F0CF1080C7FF47FAE73
:1030900030E0DC68A34208BF02303FF435AEB3E64F
:1030A0000B440C465A68C96854F8085F42F00102A4
:1030B0005A603046E9608D6000F00CF9B4E603F127
:1030C0005C0E03F15B004FEA4E0307E69A0902F13A
:1030D000390149003832A1E7BC424A4B3FF400AF06
:1030E0009C68626822F003025AE759F8083999454A
:1030F00040F0828010F0030F00F1FF30F5D17B68C3
:1031000023EA04037B6064009C423FF6BDAE002CC2
:103110003FF4BAAE1C4240467FF435AE64001C4218
:1031200000F10400FAD02EE6B3F5AA7F18D8E80B18
:1031300000F1780E4FEA4E037730CFE54FF480511F
:10314000EBE60121D8F80430921001FA02F21A439A
:10315000C8F80420614677E70123CBF8043025E75F
:1031600040F25452934220D8A80C00F17D0E4FEA51
:103170004E037C30B2E51032A4E6542A26D81A0B4E
:1031800002F16F0149006E3248E7BC68626822F0C4
:10319000030205E7CAF30B0000287FF4A8AE4244FF
:1031A000BB6842F001025A60ECE6FE234FF07F0E4E
:1031B0007E2093E501224FF00009C1E604F10801E9
:1031C000304600F0EFFDD9F80010DBE6B2F5AA7F3B
:1031D00005D8DA0B02F17801490077321EE740F298
:1031E00054518A4205D89A0C02F17D0149007C3283
:1031F00014E7FE217E2211E77B6884E7E808431C80
:103200005B00F8E59C0CFF1F8842F0B50DD98B18C8
:1032100098420AD28118002A51D09A1A13F8014D07
:1032200001F8014D9342F9D1F0BD0F2A48D941EA86
:1032300000039B0746D100F1100401F1100315466D
:1032400053F8106C44F8106C53F80C6C44F80C6C88
:1032500053F8086C44F8086C103D53F8046C44F8BB
:10326000046C0F2D03F1100304F11004E8D8A2F14F
:10327000100323F00F0302F00F0E1033BEF1030F03
:103280001944034421D91E1F0D467446043C55F8C9
:10329000047B46F8047F032CF8D8AEF1040424F034
:1032A000030404342344214402F0030262B1013BCD
:1032B0000A4411F8014B03F8014F8A42F9D1F0BDDD
:1032C0000346F3E70346F2E7F0BD7246EEE700BFC0
:1032D000704700BF704700BF024B0A46014618689E
:1032E00000F002B8980CFF1F2DE9F04F174683B08D
:1032F000002900F0C1800E46814607F10B05FFF75B
:10330000E7FF56F804EC162D2EF00304A6F108088A
:1033100040D810221546AF4241D8944275DAC94BC5
:10332000996808EB04008842416800F0D98021F0D8
:10333000010303445B68DB077DD51EF0010F35D028
:1033400039464846FFF7A8FC0746E0B156F8043C6A
:1033500023F001034344A0F108029A4200F04481A3
:10336000221F242A00F23181132A00F2048103462D
:103370003246116819605168596092689A60314606
:10338000484600F00FFD4846FFF7A4FF384603B05B
:10339000BDE8F08F25F00705002D2A46BBDA0C2387
:1033A0000020C9F8003003B0BDE8F08F56F8083CA3
:1033B000C3EB080ADAF8043023F0030C04EB0C0327
:1033C0009342BDDB5746DAF80C1057F8080F221F5E
:1033D000242AC160886000F21781132A40F212810A
:1033E0003168CAF808107168CAF80C101B2A00F27C
:1033F0002B8108360AF11002316811607168516042
:10340000B16891603E461C46D046631B0F2B1DD809
:10341000D8F8043003F0010323434444C8F80430CF
:10342000636843F0010363604846FFF753FF30468B
:1034300003B0BDE8F08F21F003012144914221DB6C
:10344000C36882680C46D3609A60DEE7D8F804202F
:1034500008EB050102F00102154343F001020B44A1
:10346000C8F804504A605A6842F0010208315A60B4
:10347000484600F097FCD7E7114603B0BDE8F04F8F
:10348000FFF70ABC1EF0010F7FF45AAF56F8083C54
:10349000C3EB080ADAF8043023F0030C01EB0C0E3E
:1034A00096458BDBC36882685746D3609A6057F8AD
:1034B000081FDAF80C30CB60221F242A996000F232
:1034C0009980132A62D93368CAF808307368CAF839
:1034D0000C301B2A00F2A08008360AF1100356E0D7
:1034E00021F0030BA34405F11000834559DA1EF0C7
:1034F000010F7FF425AF56F8081CC1EB080ADAF873
:10350000041021F0030CE34458453FF757AF5746EA
:10351000DAF80C1057F8080F221F242AC1608860BF
:1035200000F2B480132A40F2A5803168CAF808106E
:103530007168CAF80C101B2A00F2AF8008360AF135
:1035400010023168116071685160B16891600AEBD6
:103550000501C5EB0B0242F0010299604A60DAF8FE
:10356000043003F001031D434846CAF80450FFF736
:10357000B1FE38465CE733680360736843601B2A1A
:1035800027D800F1080306F10802F2E63B4632684C
:103590001A6072685A60B2689A603E467446D046B5
:1035A00033E708EB0501C5EB0B0B4BF0010299600B
:1035B0004A6056F8043C03F001031D43484646F8B0
:1035C000045CFFF787FE304632E73146FFF71CFE0A
:1035D000D5E6B3688360F368C360242A28D000F17D
:1035E000100306F11002C4E650F8043C23F0030374
:1035F0001C440AE7314638467446D046FFF704FEBD
:103600003E4602E73A46F7E6314638461C46D04683
:10361000FFF7FAFD3E46F8E6B368CAF81030F368E3
:10362000CAF81430242A1BD010360AF11803AEE76A
:10363000336903617369436106F1180200F11803ED
:1036400097E600BF9C0CFF1FB168CAF81010F16824
:10365000CAF81410242A0FD010360AF11802CBE64B
:103660003369CAF818307369CAF81C3018360AF181
:1036700020038CE73A4664E73269CAF81820726979
:10368000CAF81C2018360AF12002B5E63146384641
:103690000193FFF7B9FD019B59E7B168CAF8101013
:1036A000F168CAF81410242A03D010360AF118025F
:1036B00047E73269CAF818207269CAF81C20183620
:1036C0000AF120023DE700BF38B5074C002305464C
:1036D00008462360FEF720FA431C00D038BD23685B
:1036E000002BFBD02B6038BD9C16FF1FFFFFFFFF98
:1036F000FFFFFFFFFFFFFFFFFFFFFFFFFFFFFFFFDA
:10370000A2EB0300704700BF02780B78012A28BFA4
:103710009A42F5D16DE9044540EA0104CDE902671A
:103720006FF0000C4FEA447212B380EA010414F007
:10373000070F6AD100F0070420F0070004F003052A
:1037400021F007014FEAC505F0E8042314F0040F47
:10375000F1E804670CFA05F462EA040266EA04067A
:103760000AD063EA0403624667EA0407664603E098
:10377000F0E80423F1E8046782FA4CF582EA0604D3
:10378000A4FA8CF46CBB83FA4CF583EA0705A5FA1E
:103790008CF595B950E9022351E9026782FA4CF59C
:1037A00082EA0604A4FA8CF483FA4CF583EA07054E
:1037B000A5FA8CF52543DBD09CB92DBAB5FA85F472
:1037C00024F0070427FA04F1DDE9026723FA04F381
:1037D00003F0FF0001F0FF01FDE80445A0EB01004C
:1037E000704724BAB4FA84F424F0070426FA04F1EA
:1037F000DDE9026722FA04F202F0FF0001F0FF01A6
:10380000FDE80445A0EB0100704714F0030F3CD124
:1038100010F0030428D150F8082B51F8083B82FA25
:103820004CF582EA0305A5FA8CF55DB950F8042C35
:1038300051F8043C82FA4CF582EA0305A5FA8CF5AE
:10384000002DE8D02DBAB5FA85F424F0070423FA48
:1038500004F122FA04F202F0FF0001F0FF01FDE89A
:103860000445A0EB010070474FEAC40420F00300B8
:1038700050F8082B21F0030151F8083B0CFA04F42E
:1038800062EA040263EA0403C9E710F003041AD0F1
:10389000A1EB040120F00300E40750F8042B06D04C
:1038A0000FD28B785FFAA2F4E41A06D12BB1CB7851
:1038B0005FFAB2F4E41A00D11BB920465DF8104B50
:1038C000704701F1040150F8042BCC0721F00301EB
:1038D00051F8043B48D824D222F07F4482FA4CF5B8
:1038E00094EA1325A5FA8CF50AD165B951F8043B81
:1038F00084EA0204B4EB036F0ED150F8042BEBE71B
:103900004FEA132355E035F07F454DD10878FDE8A7
:103910000445C0F1000070474FEA126203F0FF0354
:1039200047E002EA1C4482FA4CF594EA1345A5FAF2
:103930008CF50AD165B951F8043B84EA0204B4EB72
:10394000034F0CD150F8042BEBE74FEA134330E060
:1039500015EA1C4528D10B884FEA124229E04FEAAC
:10396000124203EA1C4324E002F0FF0482FA4CF501
:1039700094EA1365A5FA8CF50AD165B951F8043BB0
:1039800084EA0204B4EB032F09D150F8042BEBE7CF
:103990004FEA13630DE015F0FF0F05D10B684FEAF6
:1039A000122223F07F4304E04FF00000FDE80445BD
:1039B000704712BA1BBA82FA4CF482EA0304A4FAE2
:1039C0008CF5B5FA85F402FA04F203FA04F34FEA2F
:1039D0001260FDE80445A0EB1360704780EA010225
:1039E000844612F0030F4FD111F0030F32D14DF87E
:1039F000044D11F0040F51F8043B0BD0A3F1013238
:103A00009A4312F0803F04BF4CF8043B51F8043B4A
:103A100016D100BF51F8044BA3F101329A4312F0C2
:103A2000803FA4F101320BD14CF8043BA24312F0C9
:103A3000803F04BF51F8043B4CF8044BEAD02346C6
:103A40000CF8013B13F0FF0F4FEA3323F8D15DF878
:103A5000044B704711F0010F06D011F8012B0CF840
:103A6000012B002A08BF704711F0020FBFD031F8B8
:103A7000022B12F0FF0F16BF2CF8022B8CF800203F
:103A800012F47F4FB3D1704711F8012B0CF8012BC2
:103A9000002AF9D1704700BFFFFFFFFFFFFFFFFFC4
:103AA000FFFFFFFFFFFFFFFFFFFFFFFFFFFFFFFF26
:103AB000FFFFFFFFFFFFFFFFFFFFFFFFFFFFFFFF16
:103AC00090F800F06DE9024520F007016FF0000C5E
:103AD00010F0070491F820F040F049804FF0000406
:103AE0006FF00700D1E9002391F840F000F10800E1
:103AF00082FA4CF2A4FA8CF283FA4CF3A2FA8CF319
:103B00004BBBD1E9022382FA4CF200F10800A4FA7F
:103B10008CF283FA4CF3A2FA8CF3E3B9D1E90423D3
:103B200082FA4CF200F10800A4FA8CF283FA4CF30A
:103B3000A2FA8CF37BB9D1E9062301F1200182FAC4
:103B40004CF200F10800A4FA8CF283FA4CF3A2FACA
:103B50008CF3002BC6D0002A04BF04301A4612BAD8
:103B6000B2FA82F2FDE8024500EBD2007047D1E9DB
:103B7000002304F00305C4F100004FEAC50514F06A
:103B8000040F91F840F00CFA05F562EA05021CBF3B
:103B900063EA050362464FF00004A9E7F0B5DFF8D9
:103BA00078E0164604460F46BEE80F008BB06D461F
:103BB0000FC5BEE80F000FC59EE80300B31E45F811
:103BC000040B222B297022D87D1E2846002200E0FB
:103BD0001A46B4FBF6F10AAB06FB114423440C462B
:103BE00013F8283C00F8013F531C0029F0D1F95488
:103BF000BB184AB1197815F8010F29700134111B4F
:103C00008C4203F80109F5DB38460BB0F0BD00200B
:103C100038700BB0F0BD00BF5C7300002DE9F047B9
:103C2000254C2568D5F8484106468846924699466F
:103C3000C4B360681F2817DC431C76B104EB800511
:103C40000122C5F888A0D4F8881182401143022EC1
:103C5000C4F88811C5F808911ED00230636044F89A
:103C600020800020BDE8F087144B03B34FF4C870E8
:103C7000FFF702F80446D0B1D5F84831002780E8B4
:103C80008800C5F8484138460123C4F88871C4F853
:103C90008C71002EE1D0D1E7D4F88C110A43C4F81E
:103CA0008C21DAE705F5A674C5F84841C1E74FF065
:103CB000FF30BDE8F08700BF58730000792C00008A
:103CC000024B13B1024800F005B870470000000035
:103CD000E13C0000002301461A461846FFF79EBF4C
:103CE00038B5074D074C2C1BA41005D0013C55F8E6
:103CF000043D9847002CF9D1BDE8384003F04EBB95
:103D00000000000000000000F8B5234F0C460646F6
:103D1000FFF7DEFABB685D6825F00305291B01F695
:103D2000EF7121F47F6121F00F01A1F58054B4F50A
:103D3000805F07DB00213046FFF7C6FCBB682B44E1
:103D4000984204D03046FFF7C5FA0020F8BD614222
:103D50003046FFF7B9FC01300DD0104BBA68196836
:103D60002D1B45F001053046091B55601960FFF712
:103D7000B1FA0120F8BD00213046FFF7A5FCBA6872
:103D8000831A0F2BDEDD064C0449246843F001033F
:103D9000001B53600860D5E79C0CFF1F6016FF1FD7
:103DA000A810FF1F002945D02DE9F0410D4680469F
:103DB000FFF78EFA55F8047C6A4927F00103A5F154
:103DC0000804E2188E685068B24220F0030062D006
:103DD000FE0750600BD455F8087CE41B01F1080E77
:103DE000A56875453B446FD0E768EF60BD60151866
:103DF0006D68ED0742D543F001026260E350B3F510
:103E0000007F18D2DB085A1C4D6851F83270A76049
:103E100001209B1000FA03F301EBC2001D43083898
:103E2000E0604D6041F83240FC604046BDE8F04142
:103E3000FFF750BA70475A0A042A53D89A0902F178
:103E400039077F0002F1380501EB870051F8272080
:103E50004449083890424DD0516821F003018B420B
:103E600002D292689042F7D1D068E060A26084608C
:103E7000D4604046BDE8F041FFF72CBA95683A4F50
:103E8000BD4203443FD0D068E86043F00102856042
:103E90006260E350B3E7FF07034407D455F8082CEA
:103EA000A41A1344A068E268C26090602F4A1268A6
:103EB00043F00100934260608C60B6D32C4B4046C7
:103EC0001968FFF721FFB0E711184968C90744D402
:103ED0009168D268CA60034443F001009160606059
:103EE000E350A2E7142A17D802F15C077F0002F121
:103EF0005B05A9E7AA104B68012505FA02F21343F6
:103F00004B600246B1E743F001024C610C61E56091
:103F1000A5606260E35088E7542A06D81A0B02F1C4
:103F20006F077F0002F16E058EE7B2F5AA7F06D813
:103F3000DA0B02F178077F0002F1770584E740F29F
:103F40005450824206D89A0C02F17D077F0002F19C
:103F50007C0579E7FE277E2576E743F00102626063
:103F6000E35062E79C0CFF1FA40CFF1FA410FF1F6F
:103F70005C16FF1F6368616E6E656C3A200000007E
:103F8000706F74656E74696F6D657465723A200048
:103F90003C80044000200000011B0000FF7F000067
:103FA000111000003108000001053D3B0002000037
:103FB00000070000000200000007000000153D3B64
:103FC00000020000000700000007000000020000DF
:103FD00020143C0000020000000700000002000066
:103FE000061F3A3E3FFFFFFFFFFFFF0000070000F4
:103FF00000020000000200000002000000020000B9
:1040000000000000000000000000000000000000B0
:104010000000000000000000010102010400000097
:10402000000000003C80044000100000041A000062
:10403000FF7F00000F0E0000650900000C0827FF3D
:10404000000200000002000000020000000000006A
:104050000B071CFF0002000000020000000200002D
:10406000000000000D0E1B00000200000002000016
:10407000000200000A020906141715160F1A2D0077
:104080000002000000020000000200000002000028
:104090000002000000020000000200000002000018
:1040A0000002000000020000000300000101020203
:1040B00004040808100120000000000000000000B7
:1040C00000000000000000000000000001010000EE
:1040D00000000101000000000000000000000000DE
:1040E00000000000000000000000010101000001CC
:1040F00000000001000101000101000100000001B9
:1041000000010001000100010000000100000101A8
:10411000010000000000000000000101010000019A
:104120000101010100010001000100010101010183
:104130000001000000010001010101010000010176
:10414000010000000000000000000000000000006E
:104150000100010000010101010100010101010153
:104160000001010101010000010101000000000146
:10417000000000000000000000000000000000003F
:10418000000000000000010001000000010101002A
:10419000000001010100000000010000000000001B
:1041A000000000000000000000000001000000000E
:1041B00001010100000001010100000000010000F8
:1041C00000010101010100010101010100000001E4
:1041D00000000000000000000000000000000000DF
:1041E00000010000000001010100000101010101C6
:1041F00000010101010100000001000000000101B7
:1042000001000000000000000000000000000000AD
:10421000000000000000000000000000010100009C
:10422000000001010000000000000000000000008C
:104230000000000000000000010101010101010176
:104240000101010101010101010101010000010160
:104250000101000001010101010101010101010150
:104260000101010101010101000000000000000046
:104270000000000000010101010000010000010038
:104280000001000001000001010101000000000028
:104290000000000000000000010101010101010116
:1042A0000101010101000000000101000101000104
:1042B00001000101000101000000000101010101F4
:1042C00001010101010101010000000000000000E6
:1042D00000010101000000000101000001010001D6
:1042E00000010000010000010000010000000101C8
:1042F00000000000000000000000010101000001BA
:1043000000000001000100000001000001010100A7
:104310000000000100000000010101000000000198
:10432000000000000000000000000001000000008C
:104330000001010000000001000100000001000078
:104340000000010100000001010100000001010066
:10435000000000000000000000000000010100005B
:104360000101000100000100010100000101000144
:104370000000010001010001010001010001010034
:10438000000000000000000000000000000000012C
:104390000001000100000101010000010100010114
:1043A0000000010101000001000100010000000007
:1043B00000000000000000000000010000000000FC
:1043C00001010000000001010100000001010101E4
:1043D00000000101010000000101000000000100D7
:1043E00000000000000000000000000001000000CC
:1043F00000010100000001010100000101010100B4
:1044000000000101010000000001010000000000A7
:10441000010000000000000000000001000000009A
:104420000101010000010101010100000001000083
:104430000001010101010000010101000000000173
:10444000000000000000000000000100010000006A
:104450000100010000000100010000000100010056
:104460000000010001000000000000000000010049
:104470000100000000000000000001010101000136
:104480000001000100010001000100000101000124
:104490000000000100010000000100010000000117
:1044A0000001000000000000000001010100000107
:1044B00000000001000001010000000001000100F7
:1044C00000000001010000010000000100000101E6
:1044D00001000000000000000000000000000000DB
:1044E00000000000000000000000000000000000CC
:1044F00000000000000000010101010000010101B5
:1045000001000000000000000000000100000000A9
:104510000101010000010101010100000001000092
:104520000001010101010000010101000000000182
:104530000000000001010100000000010000000077
:104540000101010000010101010100000001000062
:104550000000000100000000000100000000000158
:10456000000000000000000000000001000000004A
:104570000001000000000001000000000001000038
:104580000001010101010000010101000000000122
:10459000000000000000000000000000000000001B
:1045A0000001000000000001010000010101010103
:1045B00000000001010000000001000000000000F8
:1045C00000000000000000000000000000000000EB
:1045D00000010000000001010000000101010101D3
:1045E00000000101000000000001000000000000C8
:1045F00000000000000000000000000000000000BB
:1046000000000000000000000000000100000000A9
:104610000001000000000001000000000001010195
:104620000101000000000000000000000000000088
:104630000100010000000100010000010101010171
:104640000000010001000000010001000000000066
:104650000000000000000000000000010000000059
:104660000001000000000101010000000101010043
:104670000001010101010001010101010000000030
:104680000000000000000000000101010101000124
:104690000101010100000101010000000101010010
:1046A0000000000100000000000100000000000008
:1046B00000000000000000000000000000000000FA
:1046C00000000000000000000000000000000000EA
:1046D00000000000000000000000000000000000DA
:1046E00000000000000000000000000100000000C9
:1046F00001010100000001010100000000010000B3
:1047000000000001000000000000000000000001A7
:104710000000000000000000000101000101000194
:104720000100010100010000010000000000000084
:104730000000000000000000000000000000000079
:104740000000000000000000000000000000000069
:104750000100010000010101010100000100010050
:104760000000010001000001010101010000010041
:104770000100000000000000000001000000000037
:104780000101010000010000000000000101000023
:104790000000000001000001010100000000000114
:1047A0000000000000000000000101000001000105
:1047B00001000001000000000100000000010000F5
:1047C00000000100000000010000010100010000E4
:1047D00001010000000000000000010000000001D5
:1047E00000010000000100010000000001000000C5
:1047F00000010001000100010000010000000101B2
:1048000000010000000000000000010100000000A5
:104810000101000000000100000000000000000095
:104820000000000000000000000000000000000088
:104830000000000000000000000000010000000077
:104840000100000000000100000000000100000065
:104850000000010000000000010000000000000155
:104860000000000000000000000001000000000047
:104870000001000000000001000000000001000035
:104880000000000100000000000100000000010025
:104890000000000000000000000000000000000018
:1048A00001000100000001010100000101010101FE
:1048B00000000101010000000100010000000000F3
:1048C00000000000000000000000000000000000E8
:1048D00000010000000000010000000101010101D1
:1048E00000000001000000000001000000000000C6
:1048F00000000000000000000000000000000000B8
:1049000000000000000000000000000000000000A7
:104910000000000000000000010100000000010193
:104920000000000001000000000000000000000086
:104930000000000000000000000000010101010172
:104940000000000000000000000000000000000067
:104950000000000000000000000000000000000057
:104960000000000000000000000000000000000047
:104970000000000000000000010100000000010133
:104980000000000000000000000000000000000027
:104990000000000100000000010000000001000014
:1049A0000000010000000001000000000000000005
:1049B00000000000000000000000010101000001F3
:1049C00000000001000100000101000100010001E0
:1049D00000010100000100010000000100000101D0
:1049E00001000000000000000000000100000000C5
:1049F00001010000000000010000000000010000B3
:104A000000000001000000000001000000000101A2
:104A10000100000000000000000001010100000191
:104A20000000000100000000000100000001010082
:104A30000000010000000001000000000001010171
:104A40000101000000000000000001010100000160
:104A50000000000100000000000100000101010051
:104A60000000000000010001000000010000010141
:104A70000100000000000000000000000100000034
:104A80000001010000000100010000010000010020
:104A90000001010101010000000001000000000010
:104AA00001000000000000000001010101010001FF
:104AB00000000000000100000000000101010100F1
:104AC00000000000000100010000000100000101E1
:104AD00001000000000000000000000101000000D3
:104AE00001000000000100000000000101010100C0
:104AF00000010000000100010000000100000101B0
:104B0000010000000000000000010101010100009F
:104B10000000000100000000010000000001000092
:104B20000000010000000000010000000000010082
:104B30000000000000000000000001010100000171
:104B4000000000010001000000010000010101005F
:104B5000000100000001000100000001000001014F
:104B60000100000000000000000001010100000140
:104B7000000000010001000000010000010101012E
:104B80000000000000010000000001000000010121
:104B90000000000000000000000000000000000015
:104BA0000000000000000101000000000101000001
:104BB00000000000000000000101000000000101F1
:104BC00000000000000000000000000000000000E5
:104BD00000000000000001010000000001010000D1
:104BE00000000000000000000101000000000101C1
:104BF00000000000010000000000000001000000B3
:104C000000010000000001000000000100000000A1
:104C10000000010000000000000100000000000092
:104C20000100000000000000000000000000000083
:104C3000000000000001010101010000000000006F
:104C4000000000000000000101010101000000005F
:104C50000000000000000000000001000000000053
:104C60000001000000000000010000000000000141
:104C70000000000001000000000100000000010031
:104C80000000000000000000000001010100000120
:104C90000000000100000000000100000001010010
:104CA0000000000100000000000000000000000102
:104CB00000000000000000000000010101000001F0
:104CC00000000001000100010101000100010001DC
:104CD00000010001010100010000000000000101CD
:104CE00001000000000000000000010101000001BF
:104CF00000000001000100000001000100000001AF
:104D0000000101010101000100000001000100009B
:104D1000000100000000000000010101010000018D
:104D2000000000010001000000010001010101007C
:104D3000000100000001000100000001000101016C
:104D4000010000000000000000000101010000015E
:104D50000000000100010000000000010000000050
:104D6000000100000000000100000001000001013E
:104D7000010000000000000000010101010000012D
:104D8000000000010001000000010001000000011E
:104D9000000100000001000100000001000101010C
:104DA00001000000000000000001010101010001FC
:104DB00000000000000100000000000101010100EE
:104DC00000010000000000010000000000010101DE
:104DD00001010000000000000001010101010001CB
:104DE00000000000000100000000000101010100BE
:104DF00000010000000000010000000000010000B0
:104E0000000000000000000000000101010000019E
:104E1000000000010001000000000001000101018C
:104E2000000100000001000100000001000001017C
:104E3000010100000000000000010000000100016D
:104E4000000000010001000000010001010101015A
:104E5000000100000001000100000001000100004D
:104E6000000100000000000000000101010000003E
:104E7000000100000000000100000000000100002F
:104E8000000000010000000000010000000001011E
:104E90000100000000000000000000000001000010
:104EA00000000001000000000001000000000001FF
:104EB00000010000000100010000000100000101EC
:104EC00001000000000000000001000000010001DE
:104ED00000000100000100010000000101000000CD
:104EE00000010001000000010000010000010000BD
:104EF00000010000000000000001000000000001AF
:104F0000000000000001000000000001000000009F
:104F1000000100000000000100000000000101018C
:104F2000010100000000000000010000000100017C
:104F30000100010100010001000100010000000169
:104F4000000100000001000100000001000100005C
:104F5000000100000000000000010000000100014D
:104F60000100000100010001000100010000010139
:104F7000000100000001000100000001000100002C
:104F8000000100000000000000000101010000011C
:104F9000000000010001000000010001000000010C
:104FA00000010000000100010000000100000101FB
:104FB00001000000000000000001010101000001EB
:104FC00000000001000100000001000101010100DA
:104FD00000010000000000010000000000010000CE
:104FE00000000000000000000000010101000001BD
:104FF00000000001000100000001000100000001AC
:105000000001000100010001000001000000010199
:10501000000100000000000000010101010000018A
:105020000000000100010000000100010101010079
:10503000000100000100000100000001000100006B
:10504000000100000000000000000101010000015B
:10505000000000010001000000000000010101004B
:10506000000000000001000100000001000001013B
:10507000010000000000000000010101010100002A
:10508000000100000000000100000000000100001D
:10509000000000010000000000010000000000010D
:1050A00000000000000000000001000000010001FD
:1050B00000000001000100000001000100000001EB
:1050C00000010000000100010000000100000101DA
:1050D00001000000000000000001000000010001CC
:1050E00000000001000100000001000100000001BB
:1050F00000010000000100000100010000000001AB
:10510000000000000000000000010000000100019C
:105110000000000100010001000100010001000188
:105120000001000100010001000100010000010078
:10513000010000000000000000010000000100016B
:10514000000000010000010001000000000100005B
:10515000000001000100000100000001000100004A
:10516000000100000000000000010000000100013B
:10517000000000010001000000010000010001002A
:10518000000000010000000000010000000000011C
:10519000000000000000000000010101010000000B
:1051A00000000100000000010000000001000000FC
:1051B00000010000000000010000000000010101EA
:1051C00001000000000000000000010101000000DB
:1051D00001000000000001000000000001000000CC
:1051E00000000100000000000100000000000101BB
:1051F00001000000000000000000000000000001AD
:10520000000000000000010000000000000100009C
:10521000000000000100000000000001000000008C
:10522000000000000000000000000101010000007B
:10523000000001000000000001000000000001006B
:10524000000000000100000000000100000001015A
:10525000010000000000000000000001000000004C
:10526000010001000001000000010000000000003A
:10527000000000000000000000000000000000002E
:10528000000000000000000000000000000000001E
:10529000000000000000000000000000000000000E
:1052A00000000000000000000000000000000000FE
:1052B00000000101010101010000010100000000E6
:1052C00001010000000000010000000000000000DB
:1052D00000000000000000000000000000000000CE
:1052E00000000000000000000000000000000000BE
:1052F00000000000000001010100000000000001AA
:105300000000010101010001000000010000010195
:105310000101000000000000000100000000000189
:105320000000000000010101010000010000000177
:105330000001000000010001000000010001010166
:10534000010000000000000000000000000000005C
:105350000000000000000101010000010000000148
:105360000001000000000001000000010000010138
:10537000010000000000000000000000000100002B
:105380000000000100000101010100010000000116
:105390000001000000010001000000010000010107
:1053A00001010000000000000000000000000000FB
:1053B00000000000000001010100000100000001E8
:1053C00000010101010000010000000000000101D6
:1053D00001000000000000000000000101000000CA
:1053E00001000000000001000000000101010100B7
:1053F00000000100000000000100000000000100AA
:10540000000000000000000000000000000000009C
:105410000000000000000101010100010000000186
:105420000001000000010000010101010000000076
:105430000001000001010100000100000000000166
:105440000000000000010101000000010000010057
:105450000001000001000001000001000001000047
:10546000010000000000000000000001000000003A
:10547000000000000000000100000000000100002A
:105480000000000100000000000100000000000119
:10549000010000000000000000000000010000000A
:1054A00000000000000000010100000000000100F9
:1054B00000000000010000000000010000010000E9
:1054C00001000000010100000001000000000001D7
:1054D00000000000000100000100000100010000C8
:1054E00000010100000000010001000000010000B7
:1054F00001000000000000000000000100000000AA
:105500000001000000000001000000000001000098
:105510000000000100000000000100000000000188
:10552000010000000000000000000000000000007A
:105530000000000000010100010000010001000165
:105540000001000100010001000000010001000055
:10555000000100000000000000000000000000004A
:105560000000000000010101000000010000010036
:105570000001000001000001000001000001000026
:10558000010000000000000000000000000000001A
:105590000000000000000101010000010000000106
:1055A00000010000000100010000000100000101F5
:1055B00001000000000000000000000000000000EA
:1055C00000000000000101010100000100000001D5
:1055D00000010000000100010000000100010101C4
:1055E00001000001000000000000000000000000B9
:1055F00000000000000001010101000100000001A5
:105600000001000000010001000000010000010194
:105610000101000000000001000000000000000087
:105620000000000000010001010000000100000175
:105630000000010000000000010000000001010165
:10564000000000000000000000000000000000005A
:105650000000000000000101010000010000000046
:105660000000010101000000000000010000010134
:105670000100000000000000000000000000000029
:105680000100000000010101010000000100000014
:105690000000010000000000010001000000000106
:1056A00000000000000000000000000000000000FA
:1056B00000000000000100000100000100000100E6
:1056C00000010000010000010001010000000100D4
:1056D00001000000000000000000000000000000C9
:1056E00000000000000100000001000100000001B6
:1056F00000010000000100000100010000000001A5
:105700000000000000000000000000000000000099
:105710000000000000010000000100010000000185
:105720000001000100010001010101010000010070
:105730000100000000000000000000000000000068
:105740000000000000010000010000010000010055
:105750000000010100000001000001000001000044
:105760000100000000000000000000000000000038
:105770000000000000010000010000010000010025
:105780000001000001000000010101000000000113
:105790000000000101000000000000000000000007
:1057A00000000000000101010100000000000100F4
:1057B00000000101000000010000000000010101E3
:1057C00001000000000000000000000101000000D6
:1057D00001000000000001000000000101000000C5
:1057E00000000100000000000100000000000001B6
:1057F00001000000000000000000000100000000A7
:105800000001000000000001000000000001000095
:105810000000000100000000000100000000000185
:105820000000000000010000000001010000000075
:105830000000010000000000010000000000010164
:105840000000000001000000000001000000010154
:105850000000000000000000000001000100000145
:105860000001000000000000000000000000000037
:105870000000000000000000000000000000000028
:105880000000000000000000000000010000000017
:1058900001010100000101000101000100000001FF
:1058A00000010000000100010101010100000000F1
:1058B00000000000000000000000010101000001E4
:1058C00000000001000100000000000100000000D5
:1058D00000010000000100000101010000000001C2
:1058E00000000000010100000001000001000000B4
:1058F00000000000000100000100000100000100A4
:105900000001000001000001000101000000010091
:105910000100000000000000000000000101000084
:105920000000000000000101010000010000000172
:105930000001010101000001000000000000010160
:105940000100000000000000000001010100000053
:105950000000000000000101010000000000000143
:10596000000001010101000100000001000001012F
:105970000101000000000000000001000100000023
:105980000000000000000101010000000000000113
:1059900000000101010100010000000100000101FF
:1059A00001010000000000000000010100000000F3
:1059B00000000000000001010100000000000001E3
:1059C00000000101010100010000000100000101CF
:1059D00001010000000000000000010101000000C2
:1059E00001000100000001010100000000000001B1
:1059F000000001010101000100000001000001019F
:105A00000101000000000000000000000000000094
:105A10000101010000010000000100010000000080
:105A20000001000000010000010101000000000170
:105A30000000000001010000000001010100000061
:105A40000000000000000101010000010000000151
:105A5000000101010100000100000000000001013F
:105A60000100000000000000000001000100000033
:105A70000000000000000101010000010000000121
:105A8000000101010100000100000000000001010F
:105A90000100000000000000000001010000000003
:105AA00000000000000001010100000100000001F1
:105AB00000010101010000010000000000000101DF
:105AC00001000000000000000000010001000000D3
:105AD00000000000000000010000000000010000C4
